{
  "contractName": "PhysicalAssetToken",
  "abi": [
    {
      "inputs": [],
      "stateMutability": "nonpayable",
      "type": "constructor"
    },
    {
      "anonymous": false,
      "inputs": [
        {
          "indexed": true,
          "internalType": "address",
          "name": "owner",
          "type": "address"
        },
        {
          "indexed": true,
          "internalType": "address",
          "name": "approved",
          "type": "address"
        },
        {
          "indexed": true,
          "internalType": "uint256",
          "name": "tokenId",
          "type": "uint256"
        }
      ],
      "name": "Approval",
      "type": "event"
    },
    {
      "anonymous": false,
      "inputs": [
        {
          "indexed": true,
          "internalType": "address",
          "name": "owner",
          "type": "address"
        },
        {
          "indexed": true,
          "internalType": "address",
          "name": "operator",
          "type": "address"
        },
        {
          "indexed": false,
          "internalType": "bool",
          "name": "approved",
          "type": "bool"
        }
      ],
      "name": "ApprovalForAll",
      "type": "event"
    },
    {
      "anonymous": false,
      "inputs": [
        {
          "indexed": true,
          "internalType": "address",
          "name": "previousOwner",
          "type": "address"
        },
        {
          "indexed": true,
          "internalType": "address",
          "name": "newOwner",
          "type": "address"
        }
      ],
      "name": "OwnershipTransferred",
      "type": "event"
    },
    {
      "anonymous": false,
      "inputs": [
        {
          "indexed": false,
          "internalType": "uint256",
          "name": "tokenId",
          "type": "uint256"
        },
        {
          "components": [
            {
              "internalType": "address payable",
              "name": "account",
              "type": "address"
            },
            {
              "internalType": "uint96",
              "name": "value",
              "type": "uint96"
            }
          ],
          "indexed": false,
          "internalType": "struct LibPart.Part[]",
          "name": "royalties",
          "type": "tuple[]"
        }
      ],
      "name": "RoyaltiesSet",
      "type": "event"
    },
    {
      "anonymous": false,
      "inputs": [
        {
          "indexed": false,
          "internalType": "uint256",
          "name": "tokenId",
          "type": "uint256"
        },
        {
          "indexed": false,
          "internalType": "address",
          "name": "unlockerAddress",
          "type": "address"
        }
      ],
      "name": "TokenUnlocked",
      "type": "event"
    },
    {
      "anonymous": false,
      "inputs": [
        {
          "indexed": true,
          "internalType": "address",
          "name": "from",
          "type": "address"
        },
        {
          "indexed": true,
          "internalType": "address",
          "name": "to",
          "type": "address"
        },
        {
          "indexed": true,
          "internalType": "uint256",
          "name": "tokenId",
          "type": "uint256"
        }
      ],
      "name": "Transfer",
      "type": "event"
    },
    {
      "inputs": [
        {
          "internalType": "address",
          "name": "to",
          "type": "address"
        },
        {
          "internalType": "uint256",
          "name": "tokenId",
          "type": "uint256"
        }
      ],
      "name": "approve",
      "outputs": [],
      "stateMutability": "nonpayable",
      "type": "function"
    },
    {
      "inputs": [
        {
          "internalType": "address",
          "name": "owner",
          "type": "address"
        }
      ],
      "name": "balanceOf",
      "outputs": [
        {
          "internalType": "uint256",
          "name": "",
          "type": "uint256"
        }
      ],
      "stateMutability": "view",
      "type": "function",
      "constant": true
    },
    {
      "inputs": [
        {
          "internalType": "uint256",
          "name": "tokenId",
          "type": "uint256"
        }
      ],
      "name": "getApproved",
      "outputs": [
        {
          "internalType": "address",
          "name": "",
          "type": "address"
        }
      ],
      "stateMutability": "view",
      "type": "function",
      "constant": true
    },
    {
      "inputs": [
        {
          "internalType": "uint256",
          "name": "id",
          "type": "uint256"
        }
      ],
      "name": "getRaribleV2Royalties",
      "outputs": [
        {
          "components": [
            {
              "internalType": "address payable",
              "name": "account",
              "type": "address"
            },
            {
              "internalType": "uint96",
              "name": "value",
              "type": "uint96"
            }
          ],
          "internalType": "struct LibPart.Part[]",
          "name": "",
          "type": "tuple[]"
        }
      ],
      "stateMutability": "view",
      "type": "function",
      "constant": true
    },
    {
      "inputs": [
        {
          "internalType": "address",
          "name": "owner",
          "type": "address"
        },
        {
          "internalType": "address",
          "name": "operator",
          "type": "address"
        }
      ],
      "name": "isApprovedForAll",
      "outputs": [
        {
          "internalType": "bool",
          "name": "",
          "type": "bool"
        }
      ],
      "stateMutability": "view",
      "type": "function",
      "constant": true
    },
    {
      "inputs": [],
      "name": "name",
      "outputs": [
        {
          "internalType": "string",
          "name": "",
          "type": "string"
        }
      ],
      "stateMutability": "view",
      "type": "function",
      "constant": true
    },
    {
      "inputs": [],
      "name": "owner",
      "outputs": [
        {
          "internalType": "address",
          "name": "",
          "type": "address"
        }
      ],
      "stateMutability": "view",
      "type": "function",
      "constant": true
    },
    {
      "inputs": [
        {
          "internalType": "uint256",
          "name": "tokenId",
          "type": "uint256"
        }
      ],
      "name": "ownerOf",
      "outputs": [
        {
          "internalType": "address",
          "name": "",
          "type": "address"
        }
      ],
      "stateMutability": "view",
      "type": "function",
      "constant": true
    },
    {
      "inputs": [],
      "name": "renounceOwnership",
      "outputs": [],
      "stateMutability": "nonpayable",
      "type": "function"
    },
    {
      "inputs": [
        {
          "internalType": "address",
          "name": "from",
          "type": "address"
        },
        {
          "internalType": "address",
          "name": "to",
          "type": "address"
        },
        {
          "internalType": "uint256",
          "name": "tokenId",
          "type": "uint256"
        }
      ],
      "name": "safeTransferFrom",
      "outputs": [],
      "stateMutability": "nonpayable",
      "type": "function"
    },
    {
      "inputs": [
        {
          "internalType": "address",
          "name": "from",
          "type": "address"
        },
        {
          "internalType": "address",
          "name": "to",
          "type": "address"
        },
        {
          "internalType": "uint256",
          "name": "tokenId",
          "type": "uint256"
        },
        {
          "internalType": "bytes",
          "name": "_data",
          "type": "bytes"
        }
      ],
      "name": "safeTransferFrom",
      "outputs": [],
      "stateMutability": "nonpayable",
      "type": "function"
    },
    {
      "inputs": [
        {
          "internalType": "address",
          "name": "operator",
          "type": "address"
        },
        {
          "internalType": "bool",
          "name": "approved",
          "type": "bool"
        }
      ],
      "name": "setApprovalForAll",
      "outputs": [],
      "stateMutability": "nonpayable",
      "type": "function"
    },
    {
      "inputs": [],
      "name": "symbol",
      "outputs": [
        {
          "internalType": "string",
          "name": "",
          "type": "string"
        }
      ],
      "stateMutability": "view",
      "type": "function",
      "constant": true
    },
    {
      "inputs": [],
      "name": "tokenIds",
      "outputs": [
        {
          "internalType": "uint256",
          "name": "_value",
          "type": "uint256"
        }
      ],
      "stateMutability": "view",
      "type": "function",
      "constant": true
    },
    {
      "inputs": [
        {
          "internalType": "uint256",
          "name": "",
          "type": "uint256"
        }
      ],
      "name": "tokenLockedFromTimestamp",
      "outputs": [
        {
          "internalType": "uint256",
          "name": "",
          "type": "uint256"
        }
      ],
      "stateMutability": "view",
      "type": "function",
      "constant": true
    },
    {
      "inputs": [
        {
          "internalType": "uint256",
          "name": "tokenId",
          "type": "uint256"
        }
      ],
      "name": "tokenURI",
      "outputs": [
        {
          "internalType": "string",
          "name": "",
          "type": "string"
        }
      ],
      "stateMutability": "view",
      "type": "function",
      "constant": true
    },
    {
      "inputs": [
        {
          "internalType": "uint256",
          "name": "",
          "type": "uint256"
        }
      ],
      "name": "tokenUnlockCodeHashes",
      "outputs": [
        {
          "internalType": "bytes32",
          "name": "",
          "type": "bytes32"
        }
      ],
      "stateMutability": "view",
      "type": "function",
      "constant": true
    },
    {
      "inputs": [
        {
          "internalType": "uint256",
          "name": "",
          "type": "uint256"
        }
      ],
      "name": "tokenUnlocked",
      "outputs": [
        {
          "internalType": "bool",
          "name": "",
          "type": "bool"
        }
      ],
      "stateMutability": "view",
      "type": "function",
      "constant": true
    },
    {
      "inputs": [
        {
          "internalType": "address",
          "name": "from",
          "type": "address"
        },
        {
          "internalType": "address",
          "name": "to",
          "type": "address"
        },
        {
          "internalType": "uint256",
          "name": "tokenId",
          "type": "uint256"
        }
      ],
      "name": "transferFrom",
      "outputs": [],
      "stateMutability": "nonpayable",
      "type": "function"
    },
    {
      "inputs": [
        {
          "internalType": "address",
          "name": "newOwner",
          "type": "address"
        }
      ],
      "name": "transferOwnership",
      "outputs": [],
      "stateMutability": "nonpayable",
      "type": "function"
    },
    {
      "inputs": [
        {
          "internalType": "bytes32",
          "name": "unlockHash",
          "type": "bytes32"
        },
        {
          "internalType": "uint256",
          "name": "tokenId",
          "type": "uint256"
        }
      ],
      "name": "unlockToken",
      "outputs": [],
      "stateMutability": "nonpayable",
      "type": "function"
    },
    {
      "inputs": [
        {
          "internalType": "address",
          "name": "to",
          "type": "address"
        },
        {
          "internalType": "string",
          "name": "metadataURI",
          "type": "string"
        },
        {
          "internalType": "uint256",
          "name": "lockedFromTimestamp",
          "type": "uint256"
        },
        {
          "internalType": "bytes32",
          "name": "unlockHash",
          "type": "bytes32"
        }
      ],
      "name": "mint",
      "outputs": [],
      "stateMutability": "nonpayable",
      "type": "function"
    },
    {
      "inputs": [
        {
          "internalType": "uint256",
          "name": "_tokenId",
          "type": "uint256"
        },
        {
          "internalType": "address payable",
          "name": "_royaltiesReceipientAddress",
          "type": "address"
        },
        {
          "internalType": "uint96",
          "name": "_percentageBasisPoints",
          "type": "uint96"
        }
      ],
      "name": "setRoyalties",
      "outputs": [],
      "stateMutability": "nonpayable",
      "type": "function"
    },
    {
      "inputs": [
        {
          "internalType": "uint256",
          "name": "_tokenId",
          "type": "uint256"
        },
        {
          "internalType": "uint256",
          "name": "_salePrice",
          "type": "uint256"
        }
      ],
      "name": "royaltyInfo",
      "outputs": [
        {
          "internalType": "address",
          "name": "receiver",
          "type": "address"
        },
        {
          "internalType": "uint256",
          "name": "royaltyAmount",
          "type": "uint256"
        }
      ],
      "stateMutability": "view",
      "type": "function",
      "constant": true
    },
    {
      "inputs": [
        {
          "internalType": "bytes4",
          "name": "interfaceId",
          "type": "bytes4"
        }
      ],
      "name": "supportsInterface",
      "outputs": [
        {
          "internalType": "bool",
          "name": "",
          "type": "bool"
        }
      ],
      "stateMutability": "view",
      "type": "function",
      "constant": true
    }
  ],
  "bytecode": "0x60806040523480156200001157600080fd5b50604080518082018252601281527128343cb9b4b1b0b620b9b9b2ba2a37b5b2b760711b602080830191825283518085019094526002845261504160f01b9084015281519192916200006691600091620000f5565b5080516200007c906001906020840190620000f5565b50505062000099620000936200009f60201b60201c565b620000a3565b620001d8565b3390565b600780546001600160a01b038381166001600160a01b0319831681179093556040519116919082907f8be0079c531659141344cd1fd0a4f28419497f9722a3daafe3b4186f6b6457e090600090a35050565b82805462000103906200019b565b90600052602060002090601f01602090048101928262000127576000855562000172565b82601f106200014257805160ff191683800117855562000172565b8280016001018555821562000172579182015b828111156200017257825182559160200191906001019062000155565b506200018092915062000184565b5090565b5b8082111562000180576000815560010162000185565b600181811c90821680620001b057607f821691505b60208210811415620001d257634e487b7160e01b600052602260045260246000fd5b50919050565b61225f80620001e86000396000f3fe608060405234801561001057600080fd5b50600436106101735760003560e01c8063714cff56116100de578063b88d4fde11610097578063cad96cca11610071578063cad96cca1461036e578063e16612991461038e578063e985e9c5146103a1578063f2fde38b146103dd57600080fd5b8063b88d4fde14610325578063c4d271be14610338578063c87b56dd1461035b57600080fd5b8063714cff56146102d4578063715018a6146102de5780638da5cb5b146102e657806395d89b41146102f7578063a22cb465146102ff578063a3c3e1bd1461031257600080fd5b806323b872dd1161013057806323b872dd146102365780632a55205a1461024957806342842e0e1461027b57806351f6b2e81461028e5780636352211e146102ae57806370a08231146102c157600080fd5b806301ffc9a71461017857806303017e42146101a057806306fdde03146101ce578063081812fc146101e3578063095ea7b31461020e578063143094db14610223575b600080fd5b61018b610186366004611b9a565b6103f0565b60405190151581526020015b60405180910390f35b6101c06101ae366004611bb7565b600b6020526000908152604090205481565b604051908152602001610197565b6101d6610443565b6040516101979190611c28565b6101f66101f1366004611bb7565b6104d5565b6040516001600160a01b039091168152602001610197565b61022161021c366004611c50565b610562565b005b610221610231366004611c7c565b610678565b610221610244366004611cca565b610756565b61025c610257366004611d0b565b610787565b604080516001600160a01b039093168352602083019190915201610197565b610221610289366004611cca565b61088d565b6101c061029c366004611bb7565b600a6020526000908152604090205481565b6101f66102bc366004611bb7565b6108a8565b6101c06102cf366004611d2d565b61091f565b6009546101c09081565b6102216109a6565b6007546001600160a01b03166101f6565b6101d66109dc565b61022161030d366004611d4a565b6109eb565b610221610320366004611d0b565b610ab0565b610221610333366004611e14565b610c3a565b61018b610346366004611bb7565b600c6020526000908152604090205460ff1681565b6101d6610369366004611bb7565b610c6c565b61038161037c366004611bb7565b610de3565b6040516101979190611eec565b61022161039c366004611eff565b610e72565b61018b6103af366004611f73565b6001600160a01b03918216600090815260056020908152604080832093909416825291909152205460ff1690565b6102216103eb366004611d2d565b610ef0565b60006001600160e01b0319821663656cb66560e11b141561041357506001919050565b6001600160e01b0319821663152a902d60e11b141561043457506001919050565b61043d82610f8b565b92915050565b60606000805461045290611fa1565b80601f016020809104026020016040519081016040528092919081815260200182805461047e90611fa1565b80156104cb5780601f106104a0576101008083540402835291602001916104cb565b820191906000526020600020905b8154815290600101906020018083116104ae57829003601f168201915b5050505050905090565b60006104e082610fdb565b6105465760405162461bcd60e51b815260206004820152602c60248201527f4552433732313a20617070726f76656420717565727920666f72206e6f6e657860448201526b34b9ba32b73a103a37b5b2b760a11b60648201526084015b60405180910390fd5b506000908152600460205260409020546001600160a01b031690565b600061056d826108a8565b9050806001600160a01b0316836001600160a01b031614156105db5760405162461bcd60e51b815260206004820152602160248201527f4552433732313a20617070726f76616c20746f2063757272656e74206f776e656044820152603960f91b606482015260840161053d565b336001600160a01b03821614806105f757506105f781336103af565b6106695760405162461bcd60e51b815260206004820152603860248201527f4552433732313a20617070726f76652063616c6c6572206973206e6f74206f7760448201527f6e6572206e6f7220617070726f76656420666f7220616c6c0000000000000000606482015260840161053d565b6106738383610ff8565b505050565b6007546001600160a01b031633146106a25760405162461bcd60e51b815260040161053d90611fdc565b604080516001808252818301909252600091816020015b60408051808201909152600080825260208201528152602001906001900390816106b957905050905081816000815181106106f6576106f6612011565b6020026020010151602001906001600160601b031690816001600160601b031681525050828160008151811061072e5761072e612011565b60209081029190910101516001600160a01b0390911690526107508482611066565b50505050565b6107603382611281565b61077c5760405162461bcd60e51b815260040161053d90612027565b610673838383611367565b6000828152600860209081526040808320805482518185028101850190935280835284938493929190849084015b8282101561080457600084815260209081902060408051808201909152908401546001600160a01b0381168252600160a01b90046001600160601b0316818301528252600190920191016107b5565b50505050905060008151111561087d578060008151811061082757610827612011565b6020026020010151600001516127108260008151811061084957610849612011565b6020026020010151602001516001600160601b031686610869919061208e565b61087391906120c3565b9250925050610886565b60008092509250505b9250929050565b61067383838360405180602001604052806000815250610c3a565b6000818152600260205260408120546001600160a01b03168061043d5760405162461bcd60e51b815260206004820152602960248201527f4552433732313a206f776e657220717565727920666f72206e6f6e657869737460448201526832b73a103a37b5b2b760b91b606482015260840161053d565b60006001600160a01b03821661098a5760405162461bcd60e51b815260206004820152602a60248201527f4552433732313a2062616c616e636520717565727920666f7220746865207a65604482015269726f206164647265737360b01b606482015260840161053d565b506001600160a01b031660009081526003602052604090205490565b6007546001600160a01b031633146109d05760405162461bcd60e51b815260040161053d90611fdc565b6109da6000611512565b565b60606001805461045290611fa1565b6001600160a01b038216331415610a445760405162461bcd60e51b815260206004820152601960248201527f4552433732313a20617070726f766520746f2063616c6c657200000000000000604482015260640161053d565b3360008181526005602090815260408083206001600160a01b03871680855290835292819020805460ff191686151590811790915590519081529192917f17307eab39ab6107e8899845ad3d59bd9653f200f220920489ca2b5937696c31910160405180910390a35050565b610ab9816108a8565b6001600160a01b0316336001600160a01b031614610b3f5760405162461bcd60e51b815260206004820152603760248201527f506879736963616c4173736574546f6b656e3a204f6e6c7920746865204f776e60448201527f65722063616e20756e6c6f636b2074686520546f6b656e000000000000000000606482015260840161053d565b6000818152600b602090815260409182902054825191820185905291016040516020818303038152906040528051906020012014610bd15760405162461bcd60e51b815260206004820152602960248201527f506879736963616c4173736574546f6b656e3a20556e6c6f636b20436f646520604482015268125b98dbdc9c9958dd60ba1b606482015260840161053d565b6000818152600c602052604090819020805460ff19166001179055517f0fe7d9801197f79ef3b1595d19379eb58f0fff5f98b0f6d6f34c03cae5306c3790610c2e90839033909182526001600160a01b0316602082015260400190565b60405180910390a15050565b610c443383611281565b610c605760405162461bcd60e51b815260040161053d90612027565b61075084848484611564565b6060610c7782610fdb565b610cdd5760405162461bcd60e51b815260206004820152603160248201527f45524337323155524953746f726167653a2055524920717565727920666f72206044820152703737b732bc34b9ba32b73a103a37b5b2b760791b606482015260840161053d565b60008281526006602052604081208054610cf690611fa1565b80601f0160208091040260200160405190810160405280929190818152602001828054610d2290611fa1565b8015610d6f5780601f10610d4457610100808354040283529160200191610d6f565b820191906000526020600020905b815481529060010190602001808311610d5257829003601f168201915b505050505090506000610d8d60408051602081019091526000815290565b9050805160001415610da0575092915050565b815115610dd2578082604051602001610dba9291906120d7565b60405160208183030381529060405292505050919050565b610ddb84611597565b949350505050565b606060086000838152602001908152602001600020805480602002602001604051908101604052809291908181526020016000905b82821015610e6757600084815260209081902060408051808201909152908401546001600160a01b0381168252600160a01b90046001600160601b031681830152825260019092019101610e18565b505050509050919050565b6007546001600160a01b03163314610e9c5760405162461bcd60e51b815260040161053d90611fdc565b6000610ea760095490565b6000818152600a60209081526040808320879055600b90915290208390559050610ed1858261166f565b610edb81856117ae565b610ee9600980546001019055565b5050505050565b6007546001600160a01b03163314610f1a5760405162461bcd60e51b815260040161053d90611fdc565b6001600160a01b038116610f7f5760405162461bcd60e51b815260206004820152602660248201527f4f776e61626c653a206e6577206f776e657220697320746865207a65726f206160448201526564647265737360d01b606482015260840161053d565b610f8881611512565b50565b60006001600160e01b031982166380ac58cd60e01b1480610fbc57506001600160e01b03198216635b5e139f60e01b145b8061043d57506301ffc9a760e01b6001600160e01b031983161461043d565b6000908152600260205260409020546001600160a01b0316151590565b600081815260046020526040902080546001600160a01b0319166001600160a01b038416908117909155819061102d826108a8565b6001600160a01b03167f8c5be1e5ebec7d5bd14f71427d1e84f3dd0314c0f7b2291e5b200ac8c7c3b92560405160405180910390a45050565b6000805b82518110156112175760006001600160a01b031683828151811061109057611090612011565b6020026020010151600001516001600160a01b031614156110f35760405162461bcd60e51b815260206004820152601b60248201527f526563697069656e742073686f756c642062652070726573656e740000000000604482015260640161053d565b82818151811061110557611105612011565b6020026020010151602001516001600160601b03166000141561116a5760405162461bcd60e51b815260206004820181905260248201527f526f79616c74792076616c75652073686f756c6420626520706f736974697665604482015260640161053d565b82818151811061117c5761117c612011565b6020026020010151602001516001600160601b03168261119c9190612106565b9150600860008581526020019081526020016000208382815181106111c3576111c3612011565b6020908102919091018101518254600181018455600093845292829020815191909201516001600160601b0316600160a01b026001600160a01b03909116179101558061120f8161211e565b91505061106a565b5061271081106112775760405162461bcd60e51b815260206004820152602560248201527f526f79616c747920746f74616c2076616c75652073686f756c64206265203c20604482015264031303030360dc1b606482015260840161053d565b6106738383611839565b600061128c82610fdb565b6112ed5760405162461bcd60e51b815260206004820152602c60248201527f4552433732313a206f70657261746f7220717565727920666f72206e6f6e657860448201526b34b9ba32b73a103a37b5b2b760a11b606482015260840161053d565b60006112f8836108a8565b9050806001600160a01b0316846001600160a01b031614806113335750836001600160a01b0316611328846104d5565b6001600160a01b0316145b80610ddb57506001600160a01b0380821660009081526005602090815260408083209388168352929052205460ff16610ddb565b826001600160a01b031661137a826108a8565b6001600160a01b0316146113e25760405162461bcd60e51b815260206004820152602960248201527f4552433732313a207472616e73666572206f6620746f6b656e2074686174206960448201526839903737ba1037bbb760b91b606482015260840161053d565b6001600160a01b0382166114445760405162461bcd60e51b8152602060048201526024808201527f4552433732313a207472616e7366657220746f20746865207a65726f206164646044820152637265737360e01b606482015260840161053d565b61144f83838361186a565b61145a600082610ff8565b6001600160a01b0383166000908152600360205260408120805460019290611483908490612139565b90915550506001600160a01b03821660009081526003602052604081208054600192906114b1908490612106565b909155505060008181526002602052604080822080546001600160a01b0319166001600160a01b0386811691821790925591518493918716917fddf252ad1be2c89b69c2b068fc378daa952ba7f163c4a11628f55a4df523b3ef91a4505050565b600780546001600160a01b038381166001600160a01b0319831681179093556040519116919082907f8be0079c531659141344cd1fd0a4f28419497f9722a3daafe3b4186f6b6457e090600090a35050565b61156f848484611367565b61157b848484846118e0565b6107505760405162461bcd60e51b815260040161053d90612150565b60606115a282610fdb565b6116065760405162461bcd60e51b815260206004820152602f60248201527f4552433732314d657461646174613a2055524920717565727920666f72206e6f60448201526e3732bc34b9ba32b73a103a37b5b2b760891b606482015260840161053d565b600061161d60408051602081019091526000815290565b9050600081511161163d5760405180602001604052806000815250611668565b80611647846119ed565b6040516020016116589291906120d7565b6040516020818303038152906040525b9392505050565b6001600160a01b0382166116c55760405162461bcd60e51b815260206004820181905260248201527f4552433732313a206d696e7420746f20746865207a65726f2061646472657373604482015260640161053d565b6116ce81610fdb565b1561171b5760405162461bcd60e51b815260206004820152601c60248201527f4552433732313a20746f6b656e20616c7265616479206d696e74656400000000604482015260640161053d565b6117276000838361186a565b6001600160a01b0382166000908152600360205260408120805460019290611750908490612106565b909155505060008181526002602052604080822080546001600160a01b0319166001600160a01b03861690811790915590518392907fddf252ad1be2c89b69c2b068fc378daa952ba7f163c4a11628f55a4df523b3ef908290a45050565b6117b782610fdb565b61181a5760405162461bcd60e51b815260206004820152602e60248201527f45524337323155524953746f726167653a2055524920736574206f66206e6f6e60448201526d32bc34b9ba32b73a103a37b5b2b760911b606482015260840161053d565b6000828152600660209081526040909120825161067392840190611aeb565b7f3fa96d7b6bcbfe71ef171666d84db3cf52fa2d1c8afdb1cc8e486177f208b7df8282604051610c2e9291906121a2565b6000818152600a602052604090205442108061189457506000818152600c602052604090205460ff165b6106735760405162461bcd60e51b815260206004820181905260248201527f506879736963616c4173736574546f6b656e3a20546f6b656e206c6f636b6564604482015260640161053d565b60006001600160a01b0384163b156119e257604051630a85bd0160e11b81526001600160a01b0385169063150b7a02906119249033908990889088906004016121bb565b602060405180830381600087803b15801561193e57600080fd5b505af192505050801561196e575060408051601f3d908101601f1916820190925261196b918101906121f8565b60015b6119c8573d80801561199c576040519150601f19603f3d011682016040523d82523d6000602084013e6119a1565b606091505b5080516119c05760405162461bcd60e51b815260040161053d90612150565b805181602001fd5b6001600160e01b031916630a85bd0160e11b149050610ddb565b506001949350505050565b606081611a115750506040805180820190915260018152600360fc1b602082015290565b8160005b8115611a3b5780611a258161211e565b9150611a349050600a836120c3565b9150611a15565b60008167ffffffffffffffff811115611a5657611a56611d88565b6040519080825280601f01601f191660200182016040528015611a80576020820181803683370190505b5090505b8415610ddb57611a95600183612139565b9150611aa2600a86612215565b611aad906030612106565b60f81b818381518110611ac257611ac2612011565b60200101906001600160f81b031916908160001a905350611ae4600a866120c3565b9450611a84565b828054611af790611fa1565b90600052602060002090601f016020900481019282611b195760008555611b5f565b82601f10611b3257805160ff1916838001178555611b5f565b82800160010185558215611b5f579182015b82811115611b5f578251825591602001919060010190611b44565b50611b6b929150611b6f565b5090565b5b80821115611b6b5760008155600101611b70565b6001600160e01b031981168114610f8857600080fd5b600060208284031215611bac57600080fd5b813561166881611b84565b600060208284031215611bc957600080fd5b5035919050565b60005b83811015611beb578181015183820152602001611bd3565b838111156107505750506000910152565b60008151808452611c14816020860160208601611bd0565b601f01601f19169290920160200192915050565b6020815260006116686020830184611bfc565b6001600160a01b0381168114610f8857600080fd5b60008060408385031215611c6357600080fd5b8235611c6e81611c3b565b946020939093013593505050565b600080600060608486031215611c9157600080fd5b833592506020840135611ca381611c3b565b915060408401356001600160601b0381168114611cbf57600080fd5b809150509250925092565b600080600060608486031215611cdf57600080fd5b8335611cea81611c3b565b92506020840135611cfa81611c3b565b929592945050506040919091013590565b60008060408385031215611d1e57600080fd5b50508035926020909101359150565b600060208284031215611d3f57600080fd5b813561166881611c3b565b60008060408385031215611d5d57600080fd5b8235611d6881611c3b565b915060208301358015158114611d7d57600080fd5b809150509250929050565b634e487b7160e01b600052604160045260246000fd5b600067ffffffffffffffff80841115611db957611db9611d88565b604051601f8501601f19908116603f01168101908282118183101715611de157611de1611d88565b81604052809350858152868686011115611dfa57600080fd5b858560208301376000602087830101525050509392505050565b60008060008060808587031215611e2a57600080fd5b8435611e3581611c3b565b93506020850135611e4581611c3b565b925060408501359150606085013567ffffffffffffffff811115611e6857600080fd5b8501601f81018713611e7957600080fd5b611e8887823560208401611d9e565b91505092959194509250565b600081518084526020808501945080840160005b83811015611ee157815180516001600160a01b031688528301516001600160601b03168388015260409096019590820190600101611ea8565b509495945050505050565b6020815260006116686020830184611e94565b60008060008060808587031215611f1557600080fd5b8435611f2081611c3b565b9350602085013567ffffffffffffffff811115611f3c57600080fd5b8501601f81018713611f4d57600080fd5b611f5c87823560208401611d9e565b949794965050505060408301359260600135919050565b60008060408385031215611f8657600080fd5b8235611f9181611c3b565b91506020830135611d7d81611c3b565b600181811c90821680611fb557607f821691505b60208210811415611fd657634e487b7160e01b600052602260045260246000fd5b50919050565b6020808252818101527f4f776e61626c653a2063616c6c6572206973206e6f7420746865206f776e6572604082015260600190565b634e487b7160e01b600052603260045260246000fd5b60208082526031908201527f4552433732313a207472616e736665722063616c6c6572206973206e6f74206f6040820152701ddb995c881b9bdc88185c1c1c9bdd9959607a1b606082015260800190565b634e487b7160e01b600052601160045260246000fd5b60008160001904831182151516156120a8576120a8612078565b500290565b634e487b7160e01b600052601260045260246000fd5b6000826120d2576120d26120ad565b500490565b600083516120e9818460208801611bd0565b8351908301906120fd818360208801611bd0565b01949350505050565b6000821982111561211957612119612078565b500190565b600060001982141561213257612132612078565b5060010190565b60008282101561214b5761214b612078565b500390565b60208082526032908201527f4552433732313a207472616e7366657220746f206e6f6e20455243373231526560408201527131b2b4bb32b91034b6b83632b6b2b73a32b960711b606082015260800190565b828152604060208201526000610ddb6040830184611e94565b6001600160a01b03858116825284166020820152604081018390526080606082018190526000906121ee90830184611bfc565b9695505050505050565b60006020828403121561220a57600080fd5b815161166881611b84565b600082612224576122246120ad565b50069056fea2646970667358221220a7abc8ab035b8d4f79328818cbf15647e1bc89f80081eaec13fc645d1e243fc564736f6c63430008090033",
  "immutableReferences": {},
  "source": "// SPDX-License-Identifier: MIT\npragma solidity ^0.8.0;\n\nimport \"@openzeppelin/contracts/token/ERC721/extensions/ERC721URIStorage.sol\";\nimport \"@openzeppelin/contracts/utils/Counters.sol\";\nimport \"@openzeppelin/contracts/access/Ownable.sol\";\nimport \"./@rarible/royalties/contracts/impl/RoyaltiesV2Impl.sol\";\nimport \"./@rarible/royalties/contracts/LibPart.sol\";\nimport \"./@rarible/royalties/contracts/LibRoyaltiesV2.sol\";\n\ncontract PhysicalAssetToken is ERC721URIStorage, Ownable, RoyaltiesV2Impl {\n    bytes4 private constant _INTERFACE_ID_ERC2981 = 0x2a55205a;\n    using Counters for Counters.Counter;\n    Counters.Counter public tokenIds;\n\n    mapping(uint256 => uint256) public tokenLockedFromTimestamp;\n    mapping(uint256 => bytes32) public tokenUnlockCodeHashes;\n    mapping(uint256 => bool) public tokenUnlocked;\n\n    event TokenUnlocked(uint256 tokenId, address unlockerAddress);\n\n    constructor() ERC721(\"PhysicalAssetToken\", \"PA\") {}\n\n    function _beforeTokenTransfer(\n        address from,\n        address to,\n        uint256 tokenId\n    ) internal override {\n        require(\n            tokenLockedFromTimestamp[tokenId] > block.timestamp ||\n                tokenUnlocked[tokenId],\n            \"PhysicalAssetToken: Token locked\"\n        );\n        super._beforeTokenTransfer(from, to, tokenId);\n    }\n\n    function unlockToken(bytes32 unlockHash, uint256 tokenId) public {\n        require(\n            msg.sender == ownerOf(tokenId),\n            \"PhysicalAssetToken: Only the Owner can unlock the Token\"\n        ); //not 100% sure about that one yet\n        require(\n            keccak256(abi.encode(unlockHash)) == tokenUnlockCodeHashes[tokenId],\n            \"PhysicalAssetToken: Unlock Code Incorrect\"\n        );\n        tokenUnlocked[tokenId] = true;\n        emit TokenUnlocked(tokenId, msg.sender);\n    }\n\n    /**\n     * This one is the mint function that sets the unlock code, then calls the parent mint\n     */\n    function mint(\n        address to,\n        string memory metadataURI,\n        uint256 lockedFromTimestamp,\n        bytes32 unlockHash\n    ) public onlyOwner {\n        uint256 id = tokenIds.current();\n        tokenLockedFromTimestamp[id] = lockedFromTimestamp;\n        tokenUnlockCodeHashes[id] = unlockHash;\n        super._mint(to, id);\n        super._setTokenURI(id, metadataURI);\n\n        tokenIds.increment();\n    }\n\n    function setRoyalties(\n        uint256 _tokenId,\n        address payable _royaltiesReceipientAddress,\n        uint96 _percentageBasisPoints\n    ) public onlyOwner {\n        LibPart.Part[] memory _royalties = new LibPart.Part[](1);\n        _royalties[0].value = _percentageBasisPoints;\n        _royalties[0].account = _royaltiesReceipientAddress;\n        _saveRoyalties(_tokenId, _royalties);\n    }\n\n    function royaltyInfo(uint256 _tokenId, uint256 _salePrice)\n        external\n        view\n        returns (address receiver, uint256 royaltyAmount)\n    {\n        LibPart.Part[] memory _royalties = royalties[_tokenId];\n        if (_royalties.length > 0) {\n            return (\n                _royalties[0].account,\n                (_salePrice * _royalties[0].value) / 10000\n            );\n        }\n        return (address(0), 0);\n    }\n\n    function supportsInterface(bytes4 interfaceId)\n        public\n        view\n        virtual\n        override(ERC721)\n        returns (bool)\n    {\n        if (interfaceId == LibRoyaltiesV2._INTERFACE_ID_ROYALTIES) {\n            return true;\n        }\n\n        if (interfaceId == _INTERFACE_ID_ERC2981) {\n            return true;\n        }\n\n        return super.supportsInterface(interfaceId);\n    }\n}\n",
  "sourcePath": "/home/limcheekin/ws/blockchain/eth-erc721-physical-asset-delivery/contracts/PhysicalAssetToken.sol",
  "compiler": {
    "name": "solc",
    "version": "0.8.9+commit.e5eed63a.Emscripten.clang"
  },
  "schemaVersion": "3.4.3",
  "updatedAt": "2021-11-03T07:11:36.407Z",
  "networkType": "ethereum",
  "devdoc": {
    "kind": "dev",
    "methods": {
      "approve(address,uint256)": {
        "details": "See {IERC721-approve}."
      },
      "balanceOf(address)": {
        "details": "See {IERC721-balanceOf}."
      },
      "getApproved(uint256)": {
        "details": "See {IERC721-getApproved}."
      },
      "isApprovedForAll(address,address)": {
        "details": "See {IERC721-isApprovedForAll}."
      },
      "name()": {
        "details": "See {IERC721Metadata-name}."
      },
      "owner()": {
        "details": "Returns the address of the current owner."
      },
      "ownerOf(uint256)": {
        "details": "See {IERC721-ownerOf}."
      },
      "renounceOwnership()": {
        "details": "Leaves the contract without owner. It will not be possible to call `onlyOwner` functions anymore. Can only be called by the current owner. NOTE: Renouncing ownership will leave the contract without an owner, thereby removing any functionality that is only available to the owner."
      },
      "safeTransferFrom(address,address,uint256)": {
        "details": "See {IERC721-safeTransferFrom}."
      },
      "safeTransferFrom(address,address,uint256,bytes)": {
        "details": "See {IERC721-safeTransferFrom}."
      },
      "setApprovalForAll(address,bool)": {
        "details": "See {IERC721-setApprovalForAll}."
      },
      "supportsInterface(bytes4)": {
        "details": "See {IERC165-supportsInterface}."
      },
      "symbol()": {
        "details": "See {IERC721Metadata-symbol}."
      },
      "tokenURI(uint256)": {
        "details": "See {IERC721Metadata-tokenURI}."
      },
      "transferFrom(address,address,uint256)": {
        "details": "See {IERC721-transferFrom}."
      },
      "transferOwnership(address)": {
        "details": "Transfers ownership of the contract to a new account (`newOwner`). Can only be called by the current owner."
      }
    },
    "version": 1
  },
  "userdoc": {
    "kind": "user",
    "methods": {
      "mint(address,string,uint256,bytes32)": {
        "notice": "This one is the mint function that sets the unlock code, then calls the parent mint"
      }
    },
    "version": 1
  }
}