{
  "contractName": "PhysicalAssetToken",
  "abi": [
    {
      "inputs": [],
      "stateMutability": "nonpayable",
      "type": "constructor"
    },
    {
      "anonymous": false,
      "inputs": [
        {
          "indexed": true,
          "internalType": "address",
          "name": "owner",
          "type": "address"
        },
        {
          "indexed": true,
          "internalType": "address",
          "name": "approved",
          "type": "address"
        },
        {
          "indexed": true,
          "internalType": "uint256",
          "name": "tokenId",
          "type": "uint256"
        }
      ],
      "name": "Approval",
      "type": "event"
    },
    {
      "anonymous": false,
      "inputs": [
        {
          "indexed": true,
          "internalType": "address",
          "name": "owner",
          "type": "address"
        },
        {
          "indexed": true,
          "internalType": "address",
          "name": "operator",
          "type": "address"
        },
        {
          "indexed": false,
          "internalType": "bool",
          "name": "approved",
          "type": "bool"
        }
      ],
      "name": "ApprovalForAll",
      "type": "event"
    },
    {
      "anonymous": false,
      "inputs": [
        {
          "indexed": true,
          "internalType": "address",
          "name": "previousOwner",
          "type": "address"
        },
        {
          "indexed": true,
          "internalType": "address",
          "name": "newOwner",
          "type": "address"
        }
      ],
      "name": "OwnershipTransferred",
      "type": "event"
    },
    {
      "anonymous": false,
      "inputs": [
        {
          "indexed": false,
          "internalType": "uint256",
          "name": "tokenId",
          "type": "uint256"
        },
        {
          "components": [
            {
              "internalType": "address payable",
              "name": "account",
              "type": "address"
            },
            {
              "internalType": "uint96",
              "name": "value",
              "type": "uint96"
            }
          ],
          "indexed": false,
          "internalType": "struct LibPart.Part[]",
          "name": "royalties",
          "type": "tuple[]"
        }
      ],
      "name": "RoyaltiesSet",
      "type": "event"
    },
    {
      "anonymous": false,
      "inputs": [
        {
          "indexed": false,
          "internalType": "uint256",
          "name": "tokenId",
          "type": "uint256"
        },
        {
          "indexed": false,
          "internalType": "address",
          "name": "unlockerAddress",
          "type": "address"
        }
      ],
      "name": "TokenUnlocked",
      "type": "event"
    },
    {
      "anonymous": false,
      "inputs": [
        {
          "indexed": true,
          "internalType": "address",
          "name": "from",
          "type": "address"
        },
        {
          "indexed": true,
          "internalType": "address",
          "name": "to",
          "type": "address"
        },
        {
          "indexed": true,
          "internalType": "uint256",
          "name": "tokenId",
          "type": "uint256"
        }
      ],
      "name": "Transfer",
      "type": "event"
    },
    {
      "inputs": [
        {
          "internalType": "address",
          "name": "to",
          "type": "address"
        },
        {
          "internalType": "uint256",
          "name": "tokenId",
          "type": "uint256"
        }
      ],
      "name": "approve",
      "outputs": [],
      "stateMutability": "nonpayable",
      "type": "function"
    },
    {
      "inputs": [
        {
          "internalType": "address",
          "name": "owner",
          "type": "address"
        }
      ],
      "name": "balanceOf",
      "outputs": [
        {
          "internalType": "uint256",
          "name": "",
          "type": "uint256"
        }
      ],
      "stateMutability": "view",
      "type": "function",
      "constant": true
    },
    {
      "inputs": [
        {
          "internalType": "uint256",
          "name": "tokenId",
          "type": "uint256"
        }
      ],
      "name": "getApproved",
      "outputs": [
        {
          "internalType": "address",
          "name": "",
          "type": "address"
        }
      ],
      "stateMutability": "view",
      "type": "function",
      "constant": true
    },
    {
      "inputs": [
        {
          "internalType": "uint256",
          "name": "id",
          "type": "uint256"
        }
      ],
      "name": "getRaribleV2Royalties",
      "outputs": [
        {
          "components": [
            {
              "internalType": "address payable",
              "name": "account",
              "type": "address"
            },
            {
              "internalType": "uint96",
              "name": "value",
              "type": "uint96"
            }
          ],
          "internalType": "struct LibPart.Part[]",
          "name": "",
          "type": "tuple[]"
        }
      ],
      "stateMutability": "view",
      "type": "function",
      "constant": true
    },
    {
      "inputs": [
        {
          "internalType": "address",
          "name": "owner",
          "type": "address"
        },
        {
          "internalType": "address",
          "name": "operator",
          "type": "address"
        }
      ],
      "name": "isApprovedForAll",
      "outputs": [
        {
          "internalType": "bool",
          "name": "",
          "type": "bool"
        }
      ],
      "stateMutability": "view",
      "type": "function",
      "constant": true
    },
    {
      "inputs": [],
      "name": "name",
      "outputs": [
        {
          "internalType": "string",
          "name": "",
          "type": "string"
        }
      ],
      "stateMutability": "view",
      "type": "function",
      "constant": true
    },
    {
      "inputs": [],
      "name": "owner",
      "outputs": [
        {
          "internalType": "address",
          "name": "",
          "type": "address"
        }
      ],
      "stateMutability": "view",
      "type": "function",
      "constant": true
    },
    {
      "inputs": [
        {
          "internalType": "uint256",
          "name": "tokenId",
          "type": "uint256"
        }
      ],
      "name": "ownerOf",
      "outputs": [
        {
          "internalType": "address",
          "name": "",
          "type": "address"
        }
      ],
      "stateMutability": "view",
      "type": "function",
      "constant": true
    },
    {
      "inputs": [],
      "name": "renounceOwnership",
      "outputs": [],
      "stateMutability": "nonpayable",
      "type": "function"
    },
    {
      "inputs": [
        {
          "internalType": "address",
          "name": "from",
          "type": "address"
        },
        {
          "internalType": "address",
          "name": "to",
          "type": "address"
        },
        {
          "internalType": "uint256",
          "name": "tokenId",
          "type": "uint256"
        }
      ],
      "name": "safeTransferFrom",
      "outputs": [],
      "stateMutability": "nonpayable",
      "type": "function"
    },
    {
      "inputs": [
        {
          "internalType": "address",
          "name": "from",
          "type": "address"
        },
        {
          "internalType": "address",
          "name": "to",
          "type": "address"
        },
        {
          "internalType": "uint256",
          "name": "tokenId",
          "type": "uint256"
        },
        {
          "internalType": "bytes",
          "name": "_data",
          "type": "bytes"
        }
      ],
      "name": "safeTransferFrom",
      "outputs": [],
      "stateMutability": "nonpayable",
      "type": "function"
    },
    {
      "inputs": [
        {
          "internalType": "address",
          "name": "operator",
          "type": "address"
        },
        {
          "internalType": "bool",
          "name": "approved",
          "type": "bool"
        }
      ],
      "name": "setApprovalForAll",
      "outputs": [],
      "stateMutability": "nonpayable",
      "type": "function"
    },
    {
      "inputs": [],
      "name": "symbol",
      "outputs": [
        {
          "internalType": "string",
          "name": "",
          "type": "string"
        }
      ],
      "stateMutability": "view",
      "type": "function",
      "constant": true
    },
    {
      "inputs": [
        {
          "internalType": "uint256",
          "name": "",
          "type": "uint256"
        }
      ],
      "name": "tokenLockedFromTimestamp",
      "outputs": [
        {
          "internalType": "uint256",
          "name": "",
          "type": "uint256"
        }
      ],
      "stateMutability": "view",
      "type": "function",
      "constant": true
    },
    {
      "inputs": [
        {
          "internalType": "uint256",
          "name": "tokenId",
          "type": "uint256"
        }
      ],
      "name": "tokenURI",
      "outputs": [
        {
          "internalType": "string",
          "name": "",
          "type": "string"
        }
      ],
      "stateMutability": "view",
      "type": "function",
      "constant": true
    },
    {
      "inputs": [
        {
          "internalType": "uint256",
          "name": "",
          "type": "uint256"
        }
      ],
      "name": "tokenUnlockCodeHashes",
      "outputs": [
        {
          "internalType": "bytes32",
          "name": "",
          "type": "bytes32"
        }
      ],
      "stateMutability": "view",
      "type": "function",
      "constant": true
    },
    {
      "inputs": [
        {
          "internalType": "uint256",
          "name": "",
          "type": "uint256"
        }
      ],
      "name": "tokenUnlocked",
      "outputs": [
        {
          "internalType": "bool",
          "name": "",
          "type": "bool"
        }
      ],
      "stateMutability": "view",
      "type": "function",
      "constant": true
    },
    {
      "inputs": [
        {
          "internalType": "address",
          "name": "from",
          "type": "address"
        },
        {
          "internalType": "address",
          "name": "to",
          "type": "address"
        },
        {
          "internalType": "uint256",
          "name": "tokenId",
          "type": "uint256"
        }
      ],
      "name": "transferFrom",
      "outputs": [],
      "stateMutability": "nonpayable",
      "type": "function"
    },
    {
      "inputs": [
        {
          "internalType": "address",
          "name": "newOwner",
          "type": "address"
        }
      ],
      "name": "transferOwnership",
      "outputs": [],
      "stateMutability": "nonpayable",
      "type": "function"
    },
    {
      "inputs": [
        {
          "internalType": "bytes32",
          "name": "unlockHash",
          "type": "bytes32"
        },
        {
          "internalType": "uint256",
          "name": "tokenId",
          "type": "uint256"
        }
      ],
      "name": "unlockToken",
      "outputs": [],
      "stateMutability": "nonpayable",
      "type": "function"
    },
    {
      "inputs": [
        {
          "internalType": "address",
          "name": "to",
          "type": "address"
        },
        {
          "internalType": "string",
          "name": "metadataURI",
          "type": "string"
        },
        {
          "internalType": "uint256",
          "name": "lockedFromTimestamp",
          "type": "uint256"
        },
        {
          "internalType": "bytes32",
          "name": "unlockHash",
          "type": "bytes32"
        }
      ],
      "name": "mint",
      "outputs": [],
      "stateMutability": "nonpayable",
      "type": "function"
    },
    {
      "inputs": [
        {
          "internalType": "uint256",
          "name": "_tokenId",
          "type": "uint256"
        },
        {
          "internalType": "address payable",
          "name": "_royaltiesReceipientAddress",
          "type": "address"
        },
        {
          "internalType": "uint96",
          "name": "_percentageBasisPoints",
          "type": "uint96"
        }
      ],
      "name": "setRoyalties",
      "outputs": [],
      "stateMutability": "nonpayable",
      "type": "function"
    },
    {
      "inputs": [
        {
          "internalType": "uint256",
          "name": "_tokenId",
          "type": "uint256"
        },
        {
          "internalType": "uint256",
          "name": "_salePrice",
          "type": "uint256"
        }
      ],
      "name": "royaltyInfo",
      "outputs": [
        {
          "internalType": "address",
          "name": "receiver",
          "type": "address"
        },
        {
          "internalType": "uint256",
          "name": "royaltyAmount",
          "type": "uint256"
        }
      ],
      "stateMutability": "view",
      "type": "function",
      "constant": true
    },
    {
      "inputs": [
        {
          "internalType": "bytes4",
          "name": "interfaceId",
          "type": "bytes4"
        }
      ],
      "name": "supportsInterface",
      "outputs": [
        {
          "internalType": "bool",
          "name": "",
          "type": "bool"
        }
      ],
      "stateMutability": "view",
      "type": "function",
      "constant": true
    }
  ],
  "bytecode": "0x60806040523480156200001157600080fd5b50604080518082018252601281527128343cb9b4b1b0b620b9b9b2ba2a37b5b2b760711b602080830191825283518085019094526002845261504160f01b9084015281519192916200006691600091620000f5565b5080516200007c906001906020840190620000f5565b50505062000099620000936200009f60201b60201c565b620000a3565b620001d8565b3390565b600780546001600160a01b038381166001600160a01b0319831681179093556040519116919082907f8be0079c531659141344cd1fd0a4f28419497f9722a3daafe3b4186f6b6457e090600090a35050565b82805462000103906200019b565b90600052602060002090601f01602090048101928262000127576000855562000172565b82601f106200014257805160ff191683800117855562000172565b8280016001018555821562000172579182015b828111156200017257825182559160200191906001019062000155565b506200018092915062000184565b5090565b5b8082111562000180576000815560010162000185565b600181811c90821680620001b057607f821691505b60208210811415620001d257634e487b7160e01b600052602260045260246000fd5b50919050565b61223a80620001e86000396000f3fe608060405234801561001057600080fd5b50600436106101585760003560e01c8063715018a6116100c3578063c4d271be1161007c578063c4d271be14610313578063c87b56dd14610336578063cad96cca14610349578063e166129914610369578063e985e9c51461037c578063f2fde38b146103b857600080fd5b8063715018a6146102b95780638da5cb5b146102c157806395d89b41146102d2578063a22cb465146102da578063a3c3e1bd146102ed578063b88d4fde1461030057600080fd5b806323b872dd1161011557806323b872dd1461021b5780632a55205a1461022e57806342842e0e1461026057806351f6b2e8146102735780636352211e1461029357806370a08231146102a657600080fd5b806301ffc9a71461015d57806303017e421461018557806306fdde03146101b3578063081812fc146101c8578063095ea7b3146101f3578063143094db14610208575b600080fd5b61017061016b366004611b75565b6103cb565b60405190151581526020015b60405180910390f35b6101a5610193366004611b92565b600b6020526000908152604090205481565b60405190815260200161017c565b6101bb61041e565b60405161017c9190611c03565b6101db6101d6366004611b92565b6104b0565b6040516001600160a01b03909116815260200161017c565b610206610201366004611c2b565b61053d565b005b610206610216366004611c57565b610653565b610206610229366004611ca5565b610731565b61024161023c366004611ce6565b610762565b604080516001600160a01b03909316835260208301919091520161017c565b61020661026e366004611ca5565b610868565b6101a5610281366004611b92565b600a6020526000908152604090205481565b6101db6102a1366004611b92565b610883565b6101a56102b4366004611d08565b6108fa565b610206610981565b6007546001600160a01b03166101db565b6101bb6109b7565b6102066102e8366004611d25565b6109c6565b6102066102fb366004611ce6565b610a8b565b61020661030e366004611def565b610c15565b610170610321366004611b92565b600c6020526000908152604090205460ff1681565b6101bb610344366004611b92565b610c47565b61035c610357366004611b92565b610dbe565b60405161017c9190611ec7565b610206610377366004611eda565b610e4d565b61017061038a366004611f4e565b6001600160a01b03918216600090815260056020908152604080832093909416825291909152205460ff1690565b6102066103c6366004611d08565b610ecb565b60006001600160e01b0319821663656cb66560e11b14156103ee57506001919050565b6001600160e01b0319821663152a902d60e11b141561040f57506001919050565b61041882610f66565b92915050565b60606000805461042d90611f7c565b80601f016020809104026020016040519081016040528092919081815260200182805461045990611f7c565b80156104a65780601f1061047b576101008083540402835291602001916104a6565b820191906000526020600020905b81548152906001019060200180831161048957829003601f168201915b5050505050905090565b60006104bb82610fb6565b6105215760405162461bcd60e51b815260206004820152602c60248201527f4552433732313a20617070726f76656420717565727920666f72206e6f6e657860448201526b34b9ba32b73a103a37b5b2b760a11b60648201526084015b60405180910390fd5b506000908152600460205260409020546001600160a01b031690565b600061054882610883565b9050806001600160a01b0316836001600160a01b031614156105b65760405162461bcd60e51b815260206004820152602160248201527f4552433732313a20617070726f76616c20746f2063757272656e74206f776e656044820152603960f91b6064820152608401610518565b336001600160a01b03821614806105d257506105d2813361038a565b6106445760405162461bcd60e51b815260206004820152603860248201527f4552433732313a20617070726f76652063616c6c6572206973206e6f74206f7760448201527f6e6572206e6f7220617070726f76656420666f7220616c6c00000000000000006064820152608401610518565b61064e8383610fd3565b505050565b6007546001600160a01b0316331461067d5760405162461bcd60e51b815260040161051890611fb7565b604080516001808252818301909252600091816020015b604080518082019091526000808252602082015281526020019060019003908161069457905050905081816000815181106106d1576106d1611fec565b6020026020010151602001906001600160601b031690816001600160601b031681525050828160008151811061070957610709611fec565b60209081029190910101516001600160a01b03909116905261072b8482611041565b50505050565b61073b338261125c565b6107575760405162461bcd60e51b815260040161051890612002565b61064e838383611342565b6000828152600860209081526040808320805482518185028101850190935280835284938493929190849084015b828210156107df57600084815260209081902060408051808201909152908401546001600160a01b0381168252600160a01b90046001600160601b031681830152825260019092019101610790565b505050509050600081511115610858578060008151811061080257610802611fec565b6020026020010151600001516127108260008151811061082457610824611fec565b6020026020010151602001516001600160601b0316866108449190612069565b61084e919061209e565b9250925050610861565b60008092509250505b9250929050565b61064e83838360405180602001604052806000815250610c15565b6000818152600260205260408120546001600160a01b0316806104185760405162461bcd60e51b815260206004820152602960248201527f4552433732313a206f776e657220717565727920666f72206e6f6e657869737460448201526832b73a103a37b5b2b760b91b6064820152608401610518565b60006001600160a01b0382166109655760405162461bcd60e51b815260206004820152602a60248201527f4552433732313a2062616c616e636520717565727920666f7220746865207a65604482015269726f206164647265737360b01b6064820152608401610518565b506001600160a01b031660009081526003602052604090205490565b6007546001600160a01b031633146109ab5760405162461bcd60e51b815260040161051890611fb7565b6109b560006114ed565b565b60606001805461042d90611f7c565b6001600160a01b038216331415610a1f5760405162461bcd60e51b815260206004820152601960248201527f4552433732313a20617070726f766520746f2063616c6c6572000000000000006044820152606401610518565b3360008181526005602090815260408083206001600160a01b03871680855290835292819020805460ff191686151590811790915590519081529192917f17307eab39ab6107e8899845ad3d59bd9653f200f220920489ca2b5937696c31910160405180910390a35050565b610a9481610883565b6001600160a01b0316336001600160a01b031614610b1a5760405162461bcd60e51b815260206004820152603760248201527f506879736963616c4173736574546f6b656e3a204f6e6c7920746865204f776e60448201527f65722063616e20756e6c6f636b2074686520546f6b656e0000000000000000006064820152608401610518565b6000818152600b602090815260409182902054825191820185905291016040516020818303038152906040528051906020012014610bac5760405162461bcd60e51b815260206004820152602960248201527f506879736963616c4173736574546f6b656e3a20556e6c6f636b20436f646520604482015268125b98dbdc9c9958dd60ba1b6064820152608401610518565b6000818152600c602052604090819020805460ff19166001179055517f0fe7d9801197f79ef3b1595d19379eb58f0fff5f98b0f6d6f34c03cae5306c3790610c0990839033909182526001600160a01b0316602082015260400190565b60405180910390a15050565b610c1f338361125c565b610c3b5760405162461bcd60e51b815260040161051890612002565b61072b8484848461153f565b6060610c5282610fb6565b610cb85760405162461bcd60e51b815260206004820152603160248201527f45524337323155524953746f726167653a2055524920717565727920666f72206044820152703737b732bc34b9ba32b73a103a37b5b2b760791b6064820152608401610518565b60008281526006602052604081208054610cd190611f7c565b80601f0160208091040260200160405190810160405280929190818152602001828054610cfd90611f7c565b8015610d4a5780601f10610d1f57610100808354040283529160200191610d4a565b820191906000526020600020905b815481529060010190602001808311610d2d57829003601f168201915b505050505090506000610d6860408051602081019091526000815290565b9050805160001415610d7b575092915050565b815115610dad578082604051602001610d959291906120b2565b60405160208183030381529060405292505050919050565b610db684611572565b949350505050565b606060086000838152602001908152602001600020805480602002602001604051908101604052809291908181526020016000905b82821015610e4257600084815260209081902060408051808201909152908401546001600160a01b0381168252600160a01b90046001600160601b031681830152825260019092019101610df3565b505050509050919050565b6007546001600160a01b03163314610e775760405162461bcd60e51b815260040161051890611fb7565b6000610e8260095490565b6000818152600a60209081526040808320879055600b90915290208390559050610eac858261164a565b610eb68185611789565b610ec4600980546001019055565b5050505050565b6007546001600160a01b03163314610ef55760405162461bcd60e51b815260040161051890611fb7565b6001600160a01b038116610f5a5760405162461bcd60e51b815260206004820152602660248201527f4f776e61626c653a206e6577206f776e657220697320746865207a65726f206160448201526564647265737360d01b6064820152608401610518565b610f63816114ed565b50565b60006001600160e01b031982166380ac58cd60e01b1480610f9757506001600160e01b03198216635b5e139f60e01b145b8061041857506301ffc9a760e01b6001600160e01b0319831614610418565b6000908152600260205260409020546001600160a01b0316151590565b600081815260046020526040902080546001600160a01b0319166001600160a01b038416908117909155819061100882610883565b6001600160a01b03167f8c5be1e5ebec7d5bd14f71427d1e84f3dd0314c0f7b2291e5b200ac8c7c3b92560405160405180910390a45050565b6000805b82518110156111f25760006001600160a01b031683828151811061106b5761106b611fec565b6020026020010151600001516001600160a01b031614156110ce5760405162461bcd60e51b815260206004820152601b60248201527f526563697069656e742073686f756c642062652070726573656e7400000000006044820152606401610518565b8281815181106110e0576110e0611fec565b6020026020010151602001516001600160601b0316600014156111455760405162461bcd60e51b815260206004820181905260248201527f526f79616c74792076616c75652073686f756c6420626520706f7369746976656044820152606401610518565b82818151811061115757611157611fec565b6020026020010151602001516001600160601b03168261117791906120e1565b91506008600085815260200190815260200160002083828151811061119e5761119e611fec565b6020908102919091018101518254600181018455600093845292829020815191909201516001600160601b0316600160a01b026001600160a01b0390911617910155806111ea816120f9565b915050611045565b5061271081106112525760405162461bcd60e51b815260206004820152602560248201527f526f79616c747920746f74616c2076616c75652073686f756c64206265203c20604482015264031303030360dc1b6064820152608401610518565b61064e8383611814565b600061126782610fb6565b6112c85760405162461bcd60e51b815260206004820152602c60248201527f4552433732313a206f70657261746f7220717565727920666f72206e6f6e657860448201526b34b9ba32b73a103a37b5b2b760a11b6064820152608401610518565b60006112d383610883565b9050806001600160a01b0316846001600160a01b0316148061130e5750836001600160a01b0316611303846104b0565b6001600160a01b0316145b80610db657506001600160a01b0380821660009081526005602090815260408083209388168352929052205460ff16610db6565b826001600160a01b031661135582610883565b6001600160a01b0316146113bd5760405162461bcd60e51b815260206004820152602960248201527f4552433732313a207472616e73666572206f6620746f6b656e2074686174206960448201526839903737ba1037bbb760b91b6064820152608401610518565b6001600160a01b03821661141f5760405162461bcd60e51b8152602060048201526024808201527f4552433732313a207472616e7366657220746f20746865207a65726f206164646044820152637265737360e01b6064820152608401610518565b61142a838383611845565b611435600082610fd3565b6001600160a01b038316600090815260036020526040812080546001929061145e908490612114565b90915550506001600160a01b038216600090815260036020526040812080546001929061148c9084906120e1565b909155505060008181526002602052604080822080546001600160a01b0319166001600160a01b0386811691821790925591518493918716917fddf252ad1be2c89b69c2b068fc378daa952ba7f163c4a11628f55a4df523b3ef91a4505050565b600780546001600160a01b038381166001600160a01b0319831681179093556040519116919082907f8be0079c531659141344cd1fd0a4f28419497f9722a3daafe3b4186f6b6457e090600090a35050565b61154a848484611342565b611556848484846118bb565b61072b5760405162461bcd60e51b81526004016105189061212b565b606061157d82610fb6565b6115e15760405162461bcd60e51b815260206004820152602f60248201527f4552433732314d657461646174613a2055524920717565727920666f72206e6f60448201526e3732bc34b9ba32b73a103a37b5b2b760891b6064820152608401610518565b60006115f860408051602081019091526000815290565b905060008151116116185760405180602001604052806000815250611643565b80611622846119c8565b6040516020016116339291906120b2565b6040516020818303038152906040525b9392505050565b6001600160a01b0382166116a05760405162461bcd60e51b815260206004820181905260248201527f4552433732313a206d696e7420746f20746865207a65726f20616464726573736044820152606401610518565b6116a981610fb6565b156116f65760405162461bcd60e51b815260206004820152601c60248201527f4552433732313a20746f6b656e20616c7265616479206d696e746564000000006044820152606401610518565b61170260008383611845565b6001600160a01b038216600090815260036020526040812080546001929061172b9084906120e1565b909155505060008181526002602052604080822080546001600160a01b0319166001600160a01b03861690811790915590518392907fddf252ad1be2c89b69c2b068fc378daa952ba7f163c4a11628f55a4df523b3ef908290a45050565b61179282610fb6565b6117f55760405162461bcd60e51b815260206004820152602e60248201527f45524337323155524953746f726167653a2055524920736574206f66206e6f6e60448201526d32bc34b9ba32b73a103a37b5b2b760911b6064820152608401610518565b6000828152600660209081526040909120825161064e92840190611ac6565b7f3fa96d7b6bcbfe71ef171666d84db3cf52fa2d1c8afdb1cc8e486177f208b7df8282604051610c0992919061217d565b6000818152600a602052604090205442108061186f57506000818152600c602052604090205460ff165b61064e5760405162461bcd60e51b815260206004820181905260248201527f506879736963616c4173736574546f6b656e3a20546f6b656e206c6f636b65646044820152606401610518565b60006001600160a01b0384163b156119bd57604051630a85bd0160e11b81526001600160a01b0385169063150b7a02906118ff903390899088908890600401612196565b602060405180830381600087803b15801561191957600080fd5b505af1925050508015611949575060408051601f3d908101601f19168201909252611946918101906121d3565b60015b6119a3573d808015611977576040519150601f19603f3d011682016040523d82523d6000602084013e61197c565b606091505b50805161199b5760405162461bcd60e51b81526004016105189061212b565b805181602001fd5b6001600160e01b031916630a85bd0160e11b149050610db6565b506001949350505050565b6060816119ec5750506040805180820190915260018152600360fc1b602082015290565b8160005b8115611a165780611a00816120f9565b9150611a0f9050600a8361209e565b91506119f0565b60008167ffffffffffffffff811115611a3157611a31611d63565b6040519080825280601f01601f191660200182016040528015611a5b576020820181803683370190505b5090505b8415610db657611a70600183612114565b9150611a7d600a866121f0565b611a889060306120e1565b60f81b818381518110611a9d57611a9d611fec565b60200101906001600160f81b031916908160001a905350611abf600a8661209e565b9450611a5f565b828054611ad290611f7c565b90600052602060002090601f016020900481019282611af45760008555611b3a565b82601f10611b0d57805160ff1916838001178555611b3a565b82800160010185558215611b3a579182015b82811115611b3a578251825591602001919060010190611b1f565b50611b46929150611b4a565b5090565b5b80821115611b465760008155600101611b4b565b6001600160e01b031981168114610f6357600080fd5b600060208284031215611b8757600080fd5b813561164381611b5f565b600060208284031215611ba457600080fd5b5035919050565b60005b83811015611bc6578181015183820152602001611bae565b8381111561072b5750506000910152565b60008151808452611bef816020860160208601611bab565b601f01601f19169290920160200192915050565b6020815260006116436020830184611bd7565b6001600160a01b0381168114610f6357600080fd5b60008060408385031215611c3e57600080fd5b8235611c4981611c16565b946020939093013593505050565b600080600060608486031215611c6c57600080fd5b833592506020840135611c7e81611c16565b915060408401356001600160601b0381168114611c9a57600080fd5b809150509250925092565b600080600060608486031215611cba57600080fd5b8335611cc581611c16565b92506020840135611cd581611c16565b929592945050506040919091013590565b60008060408385031215611cf957600080fd5b50508035926020909101359150565b600060208284031215611d1a57600080fd5b813561164381611c16565b60008060408385031215611d3857600080fd5b8235611d4381611c16565b915060208301358015158114611d5857600080fd5b809150509250929050565b634e487b7160e01b600052604160045260246000fd5b600067ffffffffffffffff80841115611d9457611d94611d63565b604051601f8501601f19908116603f01168101908282118183101715611dbc57611dbc611d63565b81604052809350858152868686011115611dd557600080fd5b858560208301376000602087830101525050509392505050565b60008060008060808587031215611e0557600080fd5b8435611e1081611c16565b93506020850135611e2081611c16565b925060408501359150606085013567ffffffffffffffff811115611e4357600080fd5b8501601f81018713611e5457600080fd5b611e6387823560208401611d79565b91505092959194509250565b600081518084526020808501945080840160005b83811015611ebc57815180516001600160a01b031688528301516001600160601b03168388015260409096019590820190600101611e83565b509495945050505050565b6020815260006116436020830184611e6f565b60008060008060808587031215611ef057600080fd5b8435611efb81611c16565b9350602085013567ffffffffffffffff811115611f1757600080fd5b8501601f81018713611f2857600080fd5b611f3787823560208401611d79565b949794965050505060408301359260600135919050565b60008060408385031215611f6157600080fd5b8235611f6c81611c16565b91506020830135611d5881611c16565b600181811c90821680611f9057607f821691505b60208210811415611fb157634e487b7160e01b600052602260045260246000fd5b50919050565b6020808252818101527f4f776e61626c653a2063616c6c6572206973206e6f7420746865206f776e6572604082015260600190565b634e487b7160e01b600052603260045260246000fd5b60208082526031908201527f4552433732313a207472616e736665722063616c6c6572206973206e6f74206f6040820152701ddb995c881b9bdc88185c1c1c9bdd9959607a1b606082015260800190565b634e487b7160e01b600052601160045260246000fd5b600081600019048311821515161561208357612083612053565b500290565b634e487b7160e01b600052601260045260246000fd5b6000826120ad576120ad612088565b500490565b600083516120c4818460208801611bab565b8351908301906120d8818360208801611bab565b01949350505050565b600082198211156120f4576120f4612053565b500190565b600060001982141561210d5761210d612053565b5060010190565b60008282101561212657612126612053565b500390565b60208082526032908201527f4552433732313a207472616e7366657220746f206e6f6e20455243373231526560408201527131b2b4bb32b91034b6b83632b6b2b73a32b960711b606082015260800190565b828152604060208201526000610db66040830184611e6f565b6001600160a01b03858116825284166020820152604081018390526080606082018190526000906121c990830184611bd7565b9695505050505050565b6000602082840312156121e557600080fd5b815161164381611b5f565b6000826121ff576121ff612088565b50069056fea2646970667358221220917188b4bbe367cdbe8c8f29aedfbc299299c5d298e795f5489752aabce313df64736f6c63430008090033",
  "immutableReferences": {},
  "source": "// SPDX-License-Identifier: MIT\npragma solidity ^0.8.0;\n\nimport \"@openzeppelin/contracts/token/ERC721/extensions/ERC721URIStorage.sol\";\nimport \"@openzeppelin/contracts/utils/Counters.sol\";\nimport \"@openzeppelin/contracts/access/Ownable.sol\";\nimport \"./@rarible/royalties/contracts/impl/RoyaltiesV2Impl.sol\";\nimport \"./@rarible/royalties/contracts/LibPart.sol\";\nimport \"./@rarible/royalties/contracts/LibRoyaltiesV2.sol\";\n\ncontract PhysicalAssetToken is ERC721URIStorage, Ownable, RoyaltiesV2Impl {\n    bytes4 private constant _INTERFACE_ID_ERC2981 = 0x2a55205a;\n    using Counters for Counters.Counter;\n    Counters.Counter private _tokenIds;\n\n    mapping(uint256 => uint256) public tokenLockedFromTimestamp;\n    mapping(uint256 => bytes32) public tokenUnlockCodeHashes;\n    mapping(uint256 => bool) public tokenUnlocked;\n\n    event TokenUnlocked(uint256 tokenId, address unlockerAddress);\n\n    constructor() ERC721(\"PhysicalAssetToken\", \"PA\") {}\n\n    function _beforeTokenTransfer(\n        address from,\n        address to,\n        uint256 tokenId\n    ) internal override {\n        require(\n            tokenLockedFromTimestamp[tokenId] > block.timestamp ||\n                tokenUnlocked[tokenId],\n            \"PhysicalAssetToken: Token locked\"\n        );\n        super._beforeTokenTransfer(from, to, tokenId);\n    }\n\n    function unlockToken(bytes32 unlockHash, uint256 tokenId) public {\n        require(\n            msg.sender == ownerOf(tokenId),\n            \"PhysicalAssetToken: Only the Owner can unlock the Token\"\n        ); //not 100% sure about that one yet\n        require(\n            keccak256(abi.encode(unlockHash)) == tokenUnlockCodeHashes[tokenId],\n            \"PhysicalAssetToken: Unlock Code Incorrect\"\n        );\n        tokenUnlocked[tokenId] = true;\n        emit TokenUnlocked(tokenId, msg.sender);\n    }\n\n    /**\n     * This one is the mint function that sets the unlock code, then calls the parent mint\n     */\n    function mint(\n        address to,\n        string memory metadataURI,\n        uint256 lockedFromTimestamp,\n        bytes32 unlockHash\n    ) public onlyOwner {\n        uint256 id = _tokenIds.current();\n        tokenLockedFromTimestamp[id] = lockedFromTimestamp;\n        tokenUnlockCodeHashes[id] = unlockHash;\n        super._mint(to, id);\n        super._setTokenURI(id, metadataURI);\n\n        _tokenIds.increment();\n    }\n\n    function setRoyalties(\n        uint256 _tokenId,\n        address payable _royaltiesReceipientAddress,\n        uint96 _percentageBasisPoints\n    ) public onlyOwner {\n        LibPart.Part[] memory _royalties = new LibPart.Part[](1);\n        _royalties[0].value = _percentageBasisPoints;\n        _royalties[0].account = _royaltiesReceipientAddress;\n        _saveRoyalties(_tokenId, _royalties);\n    }\n\n    function royaltyInfo(uint256 _tokenId, uint256 _salePrice)\n        external\n        view\n        returns (address receiver, uint256 royaltyAmount)\n    {\n        LibPart.Part[] memory _royalties = royalties[_tokenId];\n        if (_royalties.length > 0) {\n            return (\n                _royalties[0].account,\n                (_salePrice * _royalties[0].value) / 10000\n            );\n        }\n        return (address(0), 0);\n    }\n\n    function supportsInterface(bytes4 interfaceId)\n        public\n        view\n        virtual\n        override(ERC721)\n        returns (bool)\n    {\n        if (interfaceId == LibRoyaltiesV2._INTERFACE_ID_ROYALTIES) {\n            return true;\n        }\n\n        if (interfaceId == _INTERFACE_ID_ERC2981) {\n            return true;\n        }\n\n        return super.supportsInterface(interfaceId);\n    }\n}\n",
  "sourcePath": "/home/limcheekin/ws/blockchain/eth-erc721-physical-asset-delivery/contracts/PhysicalAssetToken.sol",
  "compiler": {
    "name": "solc",
    "version": "0.8.9+commit.e5eed63a.Emscripten.clang"
  },
  "schemaVersion": "3.4.3",
  "updatedAt": "2021-11-02T12:43:23.177Z",
  "networkType": "ethereum",
  "devdoc": {
    "kind": "dev",
    "methods": {
      "approve(address,uint256)": {
        "details": "See {IERC721-approve}."
      },
      "balanceOf(address)": {
        "details": "See {IERC721-balanceOf}."
      },
      "getApproved(uint256)": {
        "details": "See {IERC721-getApproved}."
      },
      "isApprovedForAll(address,address)": {
        "details": "See {IERC721-isApprovedForAll}."
      },
      "name()": {
        "details": "See {IERC721Metadata-name}."
      },
      "owner()": {
        "details": "Returns the address of the current owner."
      },
      "ownerOf(uint256)": {
        "details": "See {IERC721-ownerOf}."
      },
      "renounceOwnership()": {
        "details": "Leaves the contract without owner. It will not be possible to call `onlyOwner` functions anymore. Can only be called by the current owner. NOTE: Renouncing ownership will leave the contract without an owner, thereby removing any functionality that is only available to the owner."
      },
      "safeTransferFrom(address,address,uint256)": {
        "details": "See {IERC721-safeTransferFrom}."
      },
      "safeTransferFrom(address,address,uint256,bytes)": {
        "details": "See {IERC721-safeTransferFrom}."
      },
      "setApprovalForAll(address,bool)": {
        "details": "See {IERC721-setApprovalForAll}."
      },
      "supportsInterface(bytes4)": {
        "details": "See {IERC165-supportsInterface}."
      },
      "symbol()": {
        "details": "See {IERC721Metadata-symbol}."
      },
      "tokenURI(uint256)": {
        "details": "See {IERC721Metadata-tokenURI}."
      },
      "transferFrom(address,address,uint256)": {
        "details": "See {IERC721-transferFrom}."
      },
      "transferOwnership(address)": {
        "details": "Transfers ownership of the contract to a new account (`newOwner`). Can only be called by the current owner."
      }
    },
    "version": 1
  },
  "userdoc": {
    "kind": "user",
    "methods": {
      "mint(address,string,uint256,bytes32)": {
        "notice": "This one is the mint function that sets the unlock code, then calls the parent mint"
      }
    },
    "version": 1
  }
}