{
  "contractName": "PhysicalAssetToken",
  "abi": [
    {
      "inputs": [],
      "stateMutability": "nonpayable",
      "type": "constructor"
    },
    {
      "anonymous": false,
      "inputs": [
        {
          "indexed": true,
          "internalType": "address",
          "name": "owner",
          "type": "address"
        },
        {
          "indexed": true,
          "internalType": "address",
          "name": "approved",
          "type": "address"
        },
        {
          "indexed": true,
          "internalType": "uint256",
          "name": "tokenId",
          "type": "uint256"
        }
      ],
      "name": "Approval",
      "type": "event"
    },
    {
      "anonymous": false,
      "inputs": [
        {
          "indexed": true,
          "internalType": "address",
          "name": "owner",
          "type": "address"
        },
        {
          "indexed": true,
          "internalType": "address",
          "name": "operator",
          "type": "address"
        },
        {
          "indexed": false,
          "internalType": "bool",
          "name": "approved",
          "type": "bool"
        }
      ],
      "name": "ApprovalForAll",
      "type": "event"
    },
    {
      "anonymous": false,
      "inputs": [
        {
          "indexed": true,
          "internalType": "address",
          "name": "previousOwner",
          "type": "address"
        },
        {
          "indexed": true,
          "internalType": "address",
          "name": "newOwner",
          "type": "address"
        }
      ],
      "name": "OwnershipTransferred",
      "type": "event"
    },
    {
      "anonymous": false,
      "inputs": [
        {
          "indexed": false,
          "internalType": "uint256",
          "name": "tokenId",
          "type": "uint256"
        },
        {
          "components": [
            {
              "internalType": "address payable",
              "name": "account",
              "type": "address"
            },
            {
              "internalType": "uint96",
              "name": "value",
              "type": "uint96"
            }
          ],
          "indexed": false,
          "internalType": "struct LibPart.Part[]",
          "name": "royalties",
          "type": "tuple[]"
        }
      ],
      "name": "RoyaltiesSet",
      "type": "event"
    },
    {
      "anonymous": false,
      "inputs": [
        {
          "indexed": false,
          "internalType": "uint256",
          "name": "tokenId",
          "type": "uint256"
        },
        {
          "indexed": false,
          "internalType": "address",
          "name": "unlockerAddress",
          "type": "address"
        }
      ],
      "name": "TokenUnlocked",
      "type": "event"
    },
    {
      "anonymous": false,
      "inputs": [
        {
          "indexed": true,
          "internalType": "address",
          "name": "from",
          "type": "address"
        },
        {
          "indexed": true,
          "internalType": "address",
          "name": "to",
          "type": "address"
        },
        {
          "indexed": true,
          "internalType": "uint256",
          "name": "tokenId",
          "type": "uint256"
        }
      ],
      "name": "Transfer",
      "type": "event"
    },
    {
      "inputs": [
        {
          "internalType": "address",
          "name": "to",
          "type": "address"
        },
        {
          "internalType": "uint256",
          "name": "tokenId",
          "type": "uint256"
        }
      ],
      "name": "approve",
      "outputs": [],
      "stateMutability": "nonpayable",
      "type": "function"
    },
    {
      "inputs": [
        {
          "internalType": "address",
          "name": "owner",
          "type": "address"
        }
      ],
      "name": "balanceOf",
      "outputs": [
        {
          "internalType": "uint256",
          "name": "",
          "type": "uint256"
        }
      ],
      "stateMutability": "view",
      "type": "function",
      "constant": true
    },
    {
      "inputs": [
        {
          "internalType": "uint256",
          "name": "tokenId",
          "type": "uint256"
        }
      ],
      "name": "getApproved",
      "outputs": [
        {
          "internalType": "address",
          "name": "",
          "type": "address"
        }
      ],
      "stateMutability": "view",
      "type": "function",
      "constant": true
    },
    {
      "inputs": [
        {
          "internalType": "uint256",
          "name": "id",
          "type": "uint256"
        }
      ],
      "name": "getRaribleV2Royalties",
      "outputs": [
        {
          "components": [
            {
              "internalType": "address payable",
              "name": "account",
              "type": "address"
            },
            {
              "internalType": "uint96",
              "name": "value",
              "type": "uint96"
            }
          ],
          "internalType": "struct LibPart.Part[]",
          "name": "",
          "type": "tuple[]"
        }
      ],
      "stateMutability": "view",
      "type": "function",
      "constant": true
    },
    {
      "inputs": [
        {
          "internalType": "address",
          "name": "owner",
          "type": "address"
        },
        {
          "internalType": "address",
          "name": "operator",
          "type": "address"
        }
      ],
      "name": "isApprovedForAll",
      "outputs": [
        {
          "internalType": "bool",
          "name": "",
          "type": "bool"
        }
      ],
      "stateMutability": "view",
      "type": "function",
      "constant": true
    },
    {
      "inputs": [],
      "name": "name",
      "outputs": [
        {
          "internalType": "string",
          "name": "",
          "type": "string"
        }
      ],
      "stateMutability": "view",
      "type": "function",
      "constant": true
    },
    {
      "inputs": [],
      "name": "owner",
      "outputs": [
        {
          "internalType": "address",
          "name": "",
          "type": "address"
        }
      ],
      "stateMutability": "view",
      "type": "function",
      "constant": true
    },
    {
      "inputs": [
        {
          "internalType": "uint256",
          "name": "tokenId",
          "type": "uint256"
        }
      ],
      "name": "ownerOf",
      "outputs": [
        {
          "internalType": "address",
          "name": "",
          "type": "address"
        }
      ],
      "stateMutability": "view",
      "type": "function",
      "constant": true
    },
    {
      "inputs": [],
      "name": "renounceOwnership",
      "outputs": [],
      "stateMutability": "nonpayable",
      "type": "function"
    },
    {
      "inputs": [
        {
          "internalType": "address",
          "name": "from",
          "type": "address"
        },
        {
          "internalType": "address",
          "name": "to",
          "type": "address"
        },
        {
          "internalType": "uint256",
          "name": "tokenId",
          "type": "uint256"
        }
      ],
      "name": "safeTransferFrom",
      "outputs": [],
      "stateMutability": "nonpayable",
      "type": "function"
    },
    {
      "inputs": [
        {
          "internalType": "address",
          "name": "from",
          "type": "address"
        },
        {
          "internalType": "address",
          "name": "to",
          "type": "address"
        },
        {
          "internalType": "uint256",
          "name": "tokenId",
          "type": "uint256"
        },
        {
          "internalType": "bytes",
          "name": "_data",
          "type": "bytes"
        }
      ],
      "name": "safeTransferFrom",
      "outputs": [],
      "stateMutability": "nonpayable",
      "type": "function"
    },
    {
      "inputs": [
        {
          "internalType": "address",
          "name": "operator",
          "type": "address"
        },
        {
          "internalType": "bool",
          "name": "approved",
          "type": "bool"
        }
      ],
      "name": "setApprovalForAll",
      "outputs": [],
      "stateMutability": "nonpayable",
      "type": "function"
    },
    {
      "inputs": [],
      "name": "symbol",
      "outputs": [
        {
          "internalType": "string",
          "name": "",
          "type": "string"
        }
      ],
      "stateMutability": "view",
      "type": "function",
      "constant": true
    },
    {
      "inputs": [
        {
          "internalType": "uint256",
          "name": "",
          "type": "uint256"
        }
      ],
      "name": "tokenLockedFromTimestamp",
      "outputs": [
        {
          "internalType": "uint256",
          "name": "",
          "type": "uint256"
        }
      ],
      "stateMutability": "view",
      "type": "function",
      "constant": true
    },
    {
      "inputs": [
        {
          "internalType": "uint256",
          "name": "",
          "type": "uint256"
        }
      ],
      "name": "tokenUnlockCodeHashes",
      "outputs": [
        {
          "internalType": "bytes32",
          "name": "",
          "type": "bytes32"
        }
      ],
      "stateMutability": "view",
      "type": "function",
      "constant": true
    },
    {
      "inputs": [
        {
          "internalType": "uint256",
          "name": "",
          "type": "uint256"
        }
      ],
      "name": "tokenUnlocked",
      "outputs": [
        {
          "internalType": "bool",
          "name": "",
          "type": "bool"
        }
      ],
      "stateMutability": "view",
      "type": "function",
      "constant": true
    },
    {
      "inputs": [
        {
          "internalType": "address",
          "name": "from",
          "type": "address"
        },
        {
          "internalType": "address",
          "name": "to",
          "type": "address"
        },
        {
          "internalType": "uint256",
          "name": "tokenId",
          "type": "uint256"
        }
      ],
      "name": "transferFrom",
      "outputs": [],
      "stateMutability": "nonpayable",
      "type": "function"
    },
    {
      "inputs": [
        {
          "internalType": "address",
          "name": "newOwner",
          "type": "address"
        }
      ],
      "name": "transferOwnership",
      "outputs": [],
      "stateMutability": "nonpayable",
      "type": "function"
    },
    {
      "inputs": [
        {
          "internalType": "bytes32",
          "name": "unlockHash",
          "type": "bytes32"
        },
        {
          "internalType": "uint256",
          "name": "tokenId",
          "type": "uint256"
        }
      ],
      "name": "unlockToken",
      "outputs": [],
      "stateMutability": "nonpayable",
      "type": "function"
    },
    {
      "inputs": [
        {
          "internalType": "address",
          "name": "to",
          "type": "address"
        },
        {
          "internalType": "uint256",
          "name": "lockedFromTimestamp",
          "type": "uint256"
        },
        {
          "internalType": "bytes32",
          "name": "unlockHash",
          "type": "bytes32"
        }
      ],
      "name": "mint",
      "outputs": [],
      "stateMutability": "nonpayable",
      "type": "function"
    },
    {
      "inputs": [
        {
          "internalType": "uint256",
          "name": "tokenId",
          "type": "uint256"
        }
      ],
      "name": "tokenURI",
      "outputs": [
        {
          "internalType": "string",
          "name": "",
          "type": "string"
        }
      ],
      "stateMutability": "view",
      "type": "function",
      "constant": true
    },
    {
      "inputs": [
        {
          "internalType": "uint256",
          "name": "_tokenId",
          "type": "uint256"
        },
        {
          "internalType": "address payable",
          "name": "_royaltiesReceipientAddress",
          "type": "address"
        },
        {
          "internalType": "uint96",
          "name": "_percentageBasisPoints",
          "type": "uint96"
        }
      ],
      "name": "setRoyalties",
      "outputs": [],
      "stateMutability": "nonpayable",
      "type": "function"
    },
    {
      "inputs": [
        {
          "internalType": "uint256",
          "name": "_tokenId",
          "type": "uint256"
        },
        {
          "internalType": "uint256",
          "name": "_salePrice",
          "type": "uint256"
        }
      ],
      "name": "royaltyInfo",
      "outputs": [
        {
          "internalType": "address",
          "name": "receiver",
          "type": "address"
        },
        {
          "internalType": "uint256",
          "name": "royaltyAmount",
          "type": "uint256"
        }
      ],
      "stateMutability": "view",
      "type": "function",
      "constant": true
    },
    {
      "inputs": [
        {
          "internalType": "bytes4",
          "name": "interfaceId",
          "type": "bytes4"
        }
      ],
      "name": "supportsInterface",
      "outputs": [
        {
          "internalType": "bool",
          "name": "",
          "type": "bool"
        }
      ],
      "stateMutability": "view",
      "type": "function",
      "constant": true
    }
  ],
  "bytecode": "0x60806040523480156200001157600080fd5b50604080518082018252601281527128343cb9b4b1b0b620b9b9b2ba2a37b5b2b760711b602080830191825283518085019094526002845261504160f01b9084015281519192916200006691600091620000f5565b5080516200007c906001906020840190620000f5565b50505062000099620000936200009f60201b60201c565b620000a3565b620001d8565b3390565b600680546001600160a01b038381166001600160a01b0319831681179093556040519116919082907f8be0079c531659141344cd1fd0a4f28419497f9722a3daafe3b4186f6b6457e090600090a35050565b82805462000103906200019b565b90600052602060002090601f01602090048101928262000127576000855562000172565b82601f106200014257805160ff191683800117855562000172565b8280016001018555821562000172579182015b828111156200017257825182559160200191906001019062000155565b506200018092915062000184565b5090565b5b8082111562000180576000815560010162000185565b600181811c90821680620001b057607f821691505b60208210811415620001d257634e487b7160e01b600052602260045260246000fd5b50919050565b61202180620001e86000396000f3fe608060405234801561001057600080fd5b50600436106101585760003560e01c806370a08231116100c3578063b88d4fde1161007c578063b88d4fde14610313578063c4d271be14610326578063c87b56dd14610349578063cad96cca1461035c578063e985e9c51461037c578063f2fde38b146103b857600080fd5b806370a08231146102b9578063715018a6146102cc5780638da5cb5b146102d457806395d89b41146102e5578063a22cb465146102ed578063a3c3e1bd1461030057600080fd5b80631e458bee116101155780631e458bee1461021b57806323b872dd1461022e5780632a55205a1461024157806342842e0e1461027357806351f6b2e8146102865780636352211e146102a657600080fd5b806301ffc9a71461015d57806303017e421461018557806306fdde03146101b3578063081812fc146101c8578063095ea7b3146101f3578063143094db14610208575b600080fd5b61017061016b366004611949565b6103cb565b60405190151581526020015b60405180910390f35b6101a5610193366004611966565b600a6020526000908152604090205481565b60405190815260200161017c565b6101bb61041e565b60405161017c91906119d7565b6101db6101d6366004611966565b6104b0565b6040516001600160a01b03909116815260200161017c565b6102066102013660046119ff565b61054a565b005b610206610216366004611a2b565b610660565b610206610229366004611a79565b61073e565b61020661023c366004611aae565b6107c7565b61025461024f366004611aef565b6107f8565b604080516001600160a01b03909316835260208301919091520161017c565b610206610281366004611aae565b6108fe565b6101a5610294366004611966565b60096020526000908152604090205481565b6101db6102b4366004611966565b610919565b6101a56102c7366004611b11565b610990565b610206610a17565b6006546001600160a01b03166101db565b6101bb610a4d565b6102066102fb366004611b2e565b610a5c565b61020661030e366004611aef565b610b21565b610206610321366004611b82565b610cab565b610170610334366004611966565b600b6020526000908152604090205460ff1681565b6101bb610357366004611966565b610cdd565b61036f61036a366004611966565b610d0e565b60405161017c9190611cba565b61017061038a366004611ccd565b6001600160a01b03918216600090815260056020908152604080832093909416825291909152205460ff1690565b6102066103c6366004611b11565b610d9d565b60006001600160e01b0319821663656cb66560e11b14156103ee57506001919050565b6001600160e01b0319821663152a902d60e11b141561040f57506001919050565b61041882610e38565b92915050565b60606000805461042d90611cfb565b80601f016020809104026020016040519081016040528092919081815260200182805461045990611cfb565b80156104a65780601f1061047b576101008083540402835291602001916104a6565b820191906000526020600020905b81548152906001019060200180831161048957829003601f168201915b5050505050905090565b6000818152600260205260408120546001600160a01b031661052e5760405162461bcd60e51b815260206004820152602c60248201527f4552433732313a20617070726f76656420717565727920666f72206e6f6e657860448201526b34b9ba32b73a103a37b5b2b760a11b60648201526084015b60405180910390fd5b506000908152600460205260409020546001600160a01b031690565b600061055582610919565b9050806001600160a01b0316836001600160a01b031614156105c35760405162461bcd60e51b815260206004820152602160248201527f4552433732313a20617070726f76616c20746f2063757272656e74206f776e656044820152603960f91b6064820152608401610525565b336001600160a01b03821614806105df57506105df813361038a565b6106515760405162461bcd60e51b815260206004820152603860248201527f4552433732313a20617070726f76652063616c6c6572206973206e6f74206f7760448201527f6e6572206e6f7220617070726f76656420666f7220616c6c00000000000000006064820152608401610525565b61065b8383610e88565b505050565b6006546001600160a01b0316331461068a5760405162461bcd60e51b815260040161052590611d36565b604080516001808252818301909252600091816020015b60408051808201909152600080825260208201528152602001906001900390816106a157905050905081816000815181106106de576106de611d6b565b6020026020010151602001906001600160601b031690816001600160601b031681525050828160008151811061071657610716611d6b565b60209081029190910101516001600160a01b0390911690526107388482610ef6565b50505050565b6006546001600160a01b031633146107685760405162461bcd60e51b815260040161052590611d36565b816009600061077660085490565b81526020019081526020016000208190555080600a600061079660085490565b81526020810191909152604001600020556107b9836107b460085490565b611111565b61065b600880546001019055565b6107d1338261125f565b6107ed5760405162461bcd60e51b815260040161052590611d81565b61065b838383611356565b6000828152600760209081526040808320805482518185028101850190935280835284938493929190849084015b8282101561087557600084815260209081902060408051808201909152908401546001600160a01b0381168252600160a01b90046001600160601b031681830152825260019092019101610826565b5050505090506000815111156108ee578060008151811061089857610898611d6b565b602002602001015160000151612710826000815181106108ba576108ba611d6b565b6020026020010151602001516001600160601b0316866108da9190611de8565b6108e49190611e1d565b92509250506108f7565b60008092509250505b9250929050565b61065b83838360405180602001604052806000815250610cab565b6000818152600260205260408120546001600160a01b0316806104185760405162461bcd60e51b815260206004820152602960248201527f4552433732313a206f776e657220717565727920666f72206e6f6e657869737460448201526832b73a103a37b5b2b760b91b6064820152608401610525565b60006001600160a01b0382166109fb5760405162461bcd60e51b815260206004820152602a60248201527f4552433732313a2062616c616e636520717565727920666f7220746865207a65604482015269726f206164647265737360b01b6064820152608401610525565b506001600160a01b031660009081526003602052604090205490565b6006546001600160a01b03163314610a415760405162461bcd60e51b815260040161052590611d36565b610a4b6000611501565b565b60606001805461042d90611cfb565b6001600160a01b038216331415610ab55760405162461bcd60e51b815260206004820152601960248201527f4552433732313a20617070726f766520746f2063616c6c6572000000000000006044820152606401610525565b3360008181526005602090815260408083206001600160a01b03871680855290835292819020805460ff191686151590811790915590519081529192917f17307eab39ab6107e8899845ad3d59bd9653f200f220920489ca2b5937696c31910160405180910390a35050565b610b2a81610919565b6001600160a01b0316336001600160a01b031614610bb05760405162461bcd60e51b815260206004820152603760248201527f506879736963616c4173736574546f6b656e3a204f6e6c7920746865204f776e60448201527f65722063616e20756e6c6f636b2074686520546f6b656e0000000000000000006064820152608401610525565b6000818152600a602090815260409182902054825191820185905291016040516020818303038152906040528051906020012014610c425760405162461bcd60e51b815260206004820152602960248201527f506879736963616c4173736574546f6b656e3a20556e6c6f636b20436f646520604482015268125b98dbdc9c9958dd60ba1b6064820152608401610525565b6000818152600b602052604090819020805460ff19166001179055517f0fe7d9801197f79ef3b1595d19379eb58f0fff5f98b0f6d6f34c03cae5306c3790610c9f90839033909182526001600160a01b0316602082015260400190565b60405180910390a15050565b610cb5338361125f565b610cd15760405162461bcd60e51b815260040161052590611d81565b61073884848484611553565b6060610ce882611586565b604051602001610cf89190611e31565b6040516020818303038152906040529050919050565b606060076000838152602001908152602001600020805480602002602001604051908101604052809291908181526020016000905b82821015610d9257600084815260209081902060408051808201909152908401546001600160a01b0381168252600160a01b90046001600160601b031681830152825260019092019101610d43565b505050509050919050565b6006546001600160a01b03163314610dc75760405162461bcd60e51b815260040161052590611d36565b6001600160a01b038116610e2c5760405162461bcd60e51b815260206004820152602660248201527f4f776e61626c653a206e6577206f776e657220697320746865207a65726f206160448201526564647265737360d01b6064820152608401610525565b610e3581611501565b50565b60006001600160e01b031982166380ac58cd60e01b1480610e6957506001600160e01b03198216635b5e139f60e01b145b8061041857506301ffc9a760e01b6001600160e01b0319831614610418565b600081815260046020526040902080546001600160a01b0319166001600160a01b0384169081179091558190610ebd82610919565b6001600160a01b03167f8c5be1e5ebec7d5bd14f71427d1e84f3dd0314c0f7b2291e5b200ac8c7c3b92560405160405180910390a45050565b6000805b82518110156110a75760006001600160a01b0316838281518110610f2057610f20611d6b565b6020026020010151600001516001600160a01b03161415610f835760405162461bcd60e51b815260206004820152601b60248201527f526563697069656e742073686f756c642062652070726573656e7400000000006044820152606401610525565b828181518110610f9557610f95611d6b565b6020026020010151602001516001600160601b031660001415610ffa5760405162461bcd60e51b815260206004820181905260248201527f526f79616c74792076616c75652073686f756c6420626520706f7369746976656044820152606401610525565b82818151811061100c5761100c611d6b565b6020026020010151602001516001600160601b03168261102c9190611e5a565b91506007600085815260200190815260200160002083828151811061105357611053611d6b565b6020908102919091018101518254600181018455600093845292829020815191909201516001600160601b0316600160a01b026001600160a01b03909116179101558061109f81611e72565b915050610efa565b5061271081106111075760405162461bcd60e51b815260206004820152602560248201527f526f79616c747920746f74616c2076616c75652073686f756c64206265203c20604482015264031303030360dc1b6064820152608401610525565b61065b8383611661565b6001600160a01b0382166111675760405162461bcd60e51b815260206004820181905260248201527f4552433732313a206d696e7420746f20746865207a65726f20616464726573736044820152606401610525565b6000818152600260205260409020546001600160a01b0316156111cc5760405162461bcd60e51b815260206004820152601c60248201527f4552433732313a20746f6b656e20616c7265616479206d696e746564000000006044820152606401610525565b6111d860008383611692565b6001600160a01b0382166000908152600360205260408120805460019290611201908490611e5a565b909155505060008181526002602052604080822080546001600160a01b0319166001600160a01b03861690811790915590518392907fddf252ad1be2c89b69c2b068fc378daa952ba7f163c4a11628f55a4df523b3ef908290a45050565b6000818152600260205260408120546001600160a01b03166112d85760405162461bcd60e51b815260206004820152602c60248201527f4552433732313a206f70657261746f7220717565727920666f72206e6f6e657860448201526b34b9ba32b73a103a37b5b2b760a11b6064820152608401610525565b60006112e383610919565b9050806001600160a01b0316846001600160a01b0316148061131e5750836001600160a01b0316611313846104b0565b6001600160a01b0316145b8061134e57506001600160a01b0380821660009081526005602090815260408083209388168352929052205460ff165b949350505050565b826001600160a01b031661136982610919565b6001600160a01b0316146113d15760405162461bcd60e51b815260206004820152602960248201527f4552433732313a207472616e73666572206f6620746f6b656e2074686174206960448201526839903737ba1037bbb760b91b6064820152608401610525565b6001600160a01b0382166114335760405162461bcd60e51b8152602060048201526024808201527f4552433732313a207472616e7366657220746f20746865207a65726f206164646044820152637265737360e01b6064820152608401610525565b61143e838383611692565b611449600082610e88565b6001600160a01b0383166000908152600360205260408120805460019290611472908490611e8d565b90915550506001600160a01b03821660009081526003602052604081208054600192906114a0908490611e5a565b909155505060008181526002602052604080822080546001600160a01b0319166001600160a01b0386811691821790925591518493918716917fddf252ad1be2c89b69c2b068fc378daa952ba7f163c4a11628f55a4df523b3ef91a4505050565b600680546001600160a01b038381166001600160a01b0319831681179093556040519116919082907f8be0079c531659141344cd1fd0a4f28419497f9722a3daafe3b4186f6b6457e090600090a35050565b61155e848484611356565b61156a84848484611708565b6107385760405162461bcd60e51b815260040161052590611ea4565b6000818152600260205260409020546060906001600160a01b03166116055760405162461bcd60e51b815260206004820152602f60248201527f4552433732314d657461646174613a2055524920717565727920666f72206e6f60448201526e3732bc34b9ba32b73a103a37b5b2b760891b6064820152608401610525565b600061160f611815565b9050600081511161162f576040518060200160405280600081525061165a565b8061163984611835565b60405160200161164a929190611ef6565b6040516020818303038152906040525b9392505050565b7f3fa96d7b6bcbfe71ef171666d84db3cf52fa2d1c8afdb1cc8e486177f208b7df8282604051610c9f929190611f25565b6000818152600960205260409020544210806116bc57506000818152600b602052604090205460ff165b61065b5760405162461bcd60e51b815260206004820181905260248201527f506879736963616c4173736574546f6b656e3a20546f6b656e206c6f636b65646044820152606401610525565b60006001600160a01b0384163b1561180a57604051630a85bd0160e11b81526001600160a01b0385169063150b7a029061174c903390899088908890600401611f3e565b602060405180830381600087803b15801561176657600080fd5b505af1925050508015611796575060408051601f3d908101601f1916820190925261179391810190611f7b565b60015b6117f0573d8080156117c4576040519150601f19603f3d011682016040523d82523d6000602084013e6117c9565b606091505b5080516117e85760405162461bcd60e51b815260040161052590611ea4565b805181602001fd5b6001600160e01b031916630a85bd0160e11b14905061134e565b506001949350505050565b60606040518060600160405280603f8152602001611fad603f9139905090565b6060816118595750506040805180820190915260018152600360fc1b602082015290565b8160005b8115611883578061186d81611e72565b915061187c9050600a83611e1d565b915061185d565b60008167ffffffffffffffff81111561189e5761189e611b6c565b6040519080825280601f01601f1916602001820160405280156118c8576020820181803683370190505b5090505b841561134e576118dd600183611e8d565b91506118ea600a86611f98565b6118f5906030611e5a565b60f81b81838151811061190a5761190a611d6b565b60200101906001600160f81b031916908160001a90535061192c600a86611e1d565b94506118cc565b6001600160e01b031981168114610e3557600080fd5b60006020828403121561195b57600080fd5b813561165a81611933565b60006020828403121561197857600080fd5b5035919050565b60005b8381101561199a578181015183820152602001611982565b838111156107385750506000910152565b600081518084526119c381602086016020860161197f565b601f01601f19169290920160200192915050565b60208152600061165a60208301846119ab565b6001600160a01b0381168114610e3557600080fd5b60008060408385031215611a1257600080fd5b8235611a1d816119ea565b946020939093013593505050565b600080600060608486031215611a4057600080fd5b833592506020840135611a52816119ea565b915060408401356001600160601b0381168114611a6e57600080fd5b809150509250925092565b600080600060608486031215611a8e57600080fd5b8335611a99816119ea565b95602085013595506040909401359392505050565b600080600060608486031215611ac357600080fd5b8335611ace816119ea565b92506020840135611ade816119ea565b929592945050506040919091013590565b60008060408385031215611b0257600080fd5b50508035926020909101359150565b600060208284031215611b2357600080fd5b813561165a816119ea565b60008060408385031215611b4157600080fd5b8235611b4c816119ea565b915060208301358015158114611b6157600080fd5b809150509250929050565b634e487b7160e01b600052604160045260246000fd5b60008060008060808587031215611b9857600080fd5b8435611ba3816119ea565b93506020850135611bb3816119ea565b925060408501359150606085013567ffffffffffffffff80821115611bd757600080fd5b818701915087601f830112611beb57600080fd5b813581811115611bfd57611bfd611b6c565b604051601f8201601f19908116603f01168101908382118183101715611c2557611c25611b6c565b816040528281528a6020848701011115611c3e57600080fd5b82602086016020830137600060208483010152809550505050505092959194509250565b600081518084526020808501945080840160005b83811015611caf57815180516001600160a01b031688528301516001600160601b03168388015260409096019590820190600101611c76565b509495945050505050565b60208152600061165a6020830184611c62565b60008060408385031215611ce057600080fd5b8235611ceb816119ea565b91506020830135611b61816119ea565b600181811c90821680611d0f57607f821691505b60208210811415611d3057634e487b7160e01b600052602260045260246000fd5b50919050565b6020808252818101527f4f776e61626c653a2063616c6c6572206973206e6f7420746865206f776e6572604082015260600190565b634e487b7160e01b600052603260045260246000fd5b60208082526031908201527f4552433732313a207472616e736665722063616c6c6572206973206e6f74206f6040820152701ddb995c881b9bdc88185c1c1c9bdd9959607a1b606082015260800190565b634e487b7160e01b600052601160045260246000fd5b6000816000190483118215151615611e0257611e02611dd2565b500290565b634e487b7160e01b600052601260045260246000fd5b600082611e2c57611e2c611e07565b500490565b60008251611e4381846020870161197f565b64173539b7b760d91b920191825250600501919050565b60008219821115611e6d57611e6d611dd2565b500190565b6000600019821415611e8657611e86611dd2565b5060010190565b600082821015611e9f57611e9f611dd2565b500390565b60208082526032908201527f4552433732313a207472616e7366657220746f206e6f6e20455243373231526560408201527131b2b4bb32b91034b6b83632b6b2b73a32b960711b606082015260800190565b60008351611f0881846020880161197f565b835190830190611f1c81836020880161197f565b01949350505050565b82815260406020820152600061134e6040830184611c62565b6001600160a01b0385811682528416602082015260408101839052608060608201819052600090611f71908301846119ab565b9695505050505050565b600060208284031215611f8d57600080fd5b815161165a81611933565b600082611fa757611fa7611e07565b50069056fe68747470733a2f2f6574682d6572633732312d706879736963616c2d61737365742d64656c69766572792e76657263656c2e6170702f6d657461646174612fa26469706673582212206d8d48468e3124925f388cfe55c5ff6843ca00f462b3ab65d566be4b55e3e8c764736f6c63430008090033",
  "immutableReferences": {},
  "source": "// SPDX-License-Identifier: MIT\npragma solidity ^0.8.0;\n\nimport \"@openzeppelin/contracts/token/ERC721/ERC721.sol\";\nimport \"@openzeppelin/contracts/utils/Counters.sol\";\nimport \"@openzeppelin/contracts/access/Ownable.sol\";\nimport \"./@rarible/royalties/contracts/impl/RoyaltiesV2Impl.sol\";\nimport \"./@rarible/royalties/contracts/LibPart.sol\";\nimport \"./@rarible/royalties/contracts/LibRoyaltiesV2.sol\";\n\ncontract PhysicalAssetToken is ERC721, Ownable, RoyaltiesV2Impl {\n    bytes4 private constant _INTERFACE_ID_ERC2981 = 0x2a55205a;\n    using Counters for Counters.Counter;\n    Counters.Counter private _tokenIds;\n\n    mapping(uint256 => uint256) public tokenLockedFromTimestamp;\n    mapping(uint256 => bytes32) public tokenUnlockCodeHashes;\n    mapping(uint256 => bool) public tokenUnlocked;\n\n    event TokenUnlocked(uint256 tokenId, address unlockerAddress);\n\n    constructor() ERC721(\"PhysicalAssetToken\", \"PA\") {}\n\n    function _beforeTokenTransfer(\n        address from,\n        address to,\n        uint256 tokenId\n    ) internal override {\n        require(\n            tokenLockedFromTimestamp[tokenId] > block.timestamp ||\n                tokenUnlocked[tokenId],\n            \"PhysicalAssetToken: Token locked\"\n        );\n        super._beforeTokenTransfer(from, to, tokenId);\n    }\n\n    function unlockToken(bytes32 unlockHash, uint256 tokenId) public {\n        require(\n            msg.sender == ownerOf(tokenId),\n            \"PhysicalAssetToken: Only the Owner can unlock the Token\"\n        ); //not 100% sure about that one yet\n        require(\n            keccak256(abi.encode(unlockHash)) == tokenUnlockCodeHashes[tokenId],\n            \"PhysicalAssetToken: Unlock Code Incorrect\"\n        );\n        tokenUnlocked[tokenId] = true;\n        emit TokenUnlocked(tokenId, msg.sender);\n    }\n\n    /**\n     * This one is the mint function that sets the unlock code, then calls the parent mint\n     */\n    function mint(\n        address to,\n        uint256 lockedFromTimestamp,\n        bytes32 unlockHash\n    ) public onlyOwner {\n        tokenLockedFromTimestamp[_tokenIds.current()] = lockedFromTimestamp;\n        tokenUnlockCodeHashes[_tokenIds.current()] = unlockHash;\n        super._mint(to, _tokenIds.current());\n        _tokenIds.increment();\n    }\n\n    function tokenURI(uint256 tokenId)\n        public\n        view\n        virtual\n        override\n        returns (string memory)\n    {\n        return string(abi.encodePacked(super.tokenURI(tokenId), \".json\"));\n    }\n\n    function _baseURI() internal view virtual override returns (string memory) {\n        return\n            \"https://eth-erc721-physical-asset-delivery.vercel.app/metadata/\";\n    }\n\n    function setRoyalties(\n        uint256 _tokenId,\n        address payable _royaltiesReceipientAddress,\n        uint96 _percentageBasisPoints\n    ) public onlyOwner {\n        LibPart.Part[] memory _royalties = new LibPart.Part[](1);\n        _royalties[0].value = _percentageBasisPoints;\n        _royalties[0].account = _royaltiesReceipientAddress;\n        _saveRoyalties(_tokenId, _royalties);\n    }\n\n    function royaltyInfo(uint256 _tokenId, uint256 _salePrice)\n        external\n        view\n        returns (address receiver, uint256 royaltyAmount)\n    {\n        LibPart.Part[] memory _royalties = royalties[_tokenId];\n        if (_royalties.length > 0) {\n            return (\n                _royalties[0].account,\n                (_salePrice * _royalties[0].value) / 10000\n            );\n        }\n        return (address(0), 0);\n    }\n\n    function supportsInterface(bytes4 interfaceId)\n        public\n        view\n        virtual\n        override(ERC721)\n        returns (bool)\n    {\n        if (interfaceId == LibRoyaltiesV2._INTERFACE_ID_ROYALTIES) {\n            return true;\n        }\n\n        if (interfaceId == _INTERFACE_ID_ERC2981) {\n            return true;\n        }\n\n        return super.supportsInterface(interfaceId);\n    }\n}\n",
  "sourcePath": "/home/limcheekin/ws/blockchain/eth-erc721-physical-asset-delivery/contracts/PhysicalAssetToken.sol",
  "compiler": {
    "name": "solc",
    "version": "0.8.9+commit.e5eed63a.Emscripten.clang"
  },
  "schemaVersion": "3.4.3",
  "updatedAt": "2021-10-07T07:33:28.454Z",
  "networkType": "ethereum",
  "devdoc": {
    "kind": "dev",
    "methods": {
      "approve(address,uint256)": {
        "details": "See {IERC721-approve}."
      },
      "balanceOf(address)": {
        "details": "See {IERC721-balanceOf}."
      },
      "getApproved(uint256)": {
        "details": "See {IERC721-getApproved}."
      },
      "isApprovedForAll(address,address)": {
        "details": "See {IERC721-isApprovedForAll}."
      },
      "name()": {
        "details": "See {IERC721Metadata-name}."
      },
      "owner()": {
        "details": "Returns the address of the current owner."
      },
      "ownerOf(uint256)": {
        "details": "See {IERC721-ownerOf}."
      },
      "renounceOwnership()": {
        "details": "Leaves the contract without owner. It will not be possible to call `onlyOwner` functions anymore. Can only be called by the current owner. NOTE: Renouncing ownership will leave the contract without an owner, thereby removing any functionality that is only available to the owner."
      },
      "safeTransferFrom(address,address,uint256)": {
        "details": "See {IERC721-safeTransferFrom}."
      },
      "safeTransferFrom(address,address,uint256,bytes)": {
        "details": "See {IERC721-safeTransferFrom}."
      },
      "setApprovalForAll(address,bool)": {
        "details": "See {IERC721-setApprovalForAll}."
      },
      "supportsInterface(bytes4)": {
        "details": "See {IERC165-supportsInterface}."
      },
      "symbol()": {
        "details": "See {IERC721Metadata-symbol}."
      },
      "tokenURI(uint256)": {
        "details": "See {IERC721Metadata-tokenURI}."
      },
      "transferFrom(address,address,uint256)": {
        "details": "See {IERC721-transferFrom}."
      },
      "transferOwnership(address)": {
        "details": "Transfers ownership of the contract to a new account (`newOwner`). Can only be called by the current owner."
      }
    },
    "version": 1
  },
  "userdoc": {
    "kind": "user",
    "methods": {
      "mint(address,uint256,bytes32)": {
        "notice": "This one is the mint function that sets the unlock code, then calls the parent mint"
      }
    },
    "version": 1
  }
}